:020000040800F2
:10000000D80A00202D590008ED590008F1590008C0
:10001000F5590008F9590008FD59000800000000D2
:10002000000000000000000000000000015A00086D
:10003000055A000800000000095A00080D5A00087F
:10004000115A0008155A0008195A00081D5A0008CC
:10005000215A0008255A0008193F0008213F0008CE
:10006000293F0008313F0008393F0008295A00089D
:100070002D5A0008315A0008355A0008395A00082C
:100080003D5A0008415A0008455A0008495A0008DC
:100090004D5A0008515A0008555A0008413F0008BF
:1000A000595A0008D94000085D5A0008615A0008F2
:1000B000655A0008695A00086D5A0008715A00080C
:1000C000755A0008795A00087D5A0008815A0008BC
:1000D000855A0008895A00088D5A0008915A00086C
:1000E000493F0008955A0008995A00089D5A00088F
:1000F000A15A00080178407851EA002080B2704788
:100100000178427851EA0221827851EA0241C078AE
:1001100051EA00607047C178827851EA0221427842
:1001200051EA0241007851EA00607047017089B2DB
:100130000A0A4270704701700A0A42700A0C827003
:100140000A0EC2707047C1700A0A82700A0C4270AF
:100150000A0E02707047FF20704770B40200002042
:1001600041F2210300248C4210D2A55C90EA0520C4
:100170000825EDB2002D07D0060402D593EA400011
:1001800000E040006D1EF4E7641CECE780B270BC38
:1001900070472DE9F04704000D0016001F005FF0C6
:1001A00010085FF00009DFF8B4AB4A4641465046FC
:1001B00002F0EAFA4920DFF8A41B0870002E04D0F0
:1001C0000120DFF8981B487103E00020DFF88C1B4A
:1001D0004871DFF8880BC7732100DFF8840BFFF745
:1001E000AAFF2900DFF8440CFFF7A5FFBDE8F08760
:1001F0002DE9F84F04000D0016001F00DDF82880DF
:10020000DDF82C904B463A0031002800FFF7C1FF83
:100210005FF0100ADFF818BC52462100584602F081
:10022000F7FA4A4692B24146022002F091FB834619
:1002300019EB0800FFF76FFF834501D1012000E0B3
:100240000020C0B2BDE8F28F2DE9F84F04000D0088
:1002500016001F00DDF82880DDF82C904B463A0090
:1002600031002800FFF795FF5FF0100ADFF8C0BBF0
:1002700052462100584602F0CBFA4A4692B2414615
:10028000022002F065FB010019EB0800FFF75BFF9D
:10029000BDE8F18F38B504000D00DFF8940B02F0D3
:1002A000DDFF2A0092B221000A2002F051FB01007A
:1002B0002819FFF748FF31BD70B504000D00DFF8C5
:1002C000700B02F0CBFF2A0092B221000A2002F04C
:1002D0003FFB06002819FFF71EFF864201D10120CF
:1002E00000E00020C0B270BD38B504000D00DFF89A
:1002F000400B02F0B3FF2A0092B22100002002F06E
:1003000027FB31BD2DE9F14F0C0015001E000A9F9F
:10031000DDF82C80B8F1010F3ADB5FF010095FF0D7
:10032000000ADFF838BA52464946584602F02CFA1D
:100330000120DFF8281AC873DFF8200AC07BDFF835
:100340001C1A0870002E04D00120DFF8101A487122
:1003500003E00020DFF8041A48712100DFF8000AEA
:10036000FFF7E9FE2900DFF8C40AFFF7E4FE5FF0BB
:100370001009DDF800A0DFF8B8BA4A4651465846E1
:1003800002F046FA424692B23900042002F0E0FA46
:10039000BDE8F18F2DE9F84F04000D0016009B46D3
:1003A00010275FF0000842463900300002F0ECF9F7
:1003B000012030705FF0060916F1010A4A46290053
:1003C000504602F025FA210089B2F01DFFF7AEFE7B
:1003D0005FF0100A52463100584602F019FA022026
:1003E0008BF80000DFF8340B02F038FF10223100E8
:1003F000002002F0ADFADFF8240B02F02FFF1022EC
:100400005946002002F0A4FABDE8F18F38B5040087
:10041000200080B202F080FF0500200080B202F0D0
:100420007EFFDFF8FC1AEDB2032202FB0511405CEF
:100430008D3832BD2DE9F04704000F00200080B256
:1004400002F06DFF0500200080B202F065FF06009B
:10045000F6B2002E0AD1FFB217F10B005FF4802133
:1004600048434CF2503190FBF1F062E0B01DC0B255
:100470005FEA8008F6B2052E01DB082000E00020CC
:10048000B8EB0009200080B202F04DFF002802D036
:100490005FF0000A01E05FF0100A200080B202F075
:1004A00046FF002801D0142000E00020FFB25FFAD0
:1004B00088F8D8EBC7011AEB01011C31B1EB000A37
:1004C000BAF1010F13DB5FFA89F919EB0A00401E3C
:1004D0005FFA89F990FBF9FA200080B202F02BFF55
:1004E000401D00FB0AF082461AF1080A01E00820CC
:1004F00082465FEA8A0010F1310A701C401B804678
:1005000043F609515FFA88F8B8F1050F06DBB8F138
:100510000402080001001141042080461AFA08F084
:100520004FF40042022391FBF3F302FB003090FBF7
:10053000F1F0BDE8F08770B40200D2B2002A0AD10F
:10054000DFF8E049B4F9B4402000DFF8D849B4F945
:10055000B64023000FE0DFF8CC49B4F9B440D2B282
:100560005443E4112000DFF8BC49B4F9B640D2B2DC
:100570005443E41123000524DFF8A859B5F9B85015
:10058000DFF8A06996F8316106FB0533DFF898596A
:10059000C9B255F8215093FBF5F56D1DDFF884695C
:1005A0003574E4B2083CDFF88059C9B255F821101F
:1005B00001FB040070BC704770B504000D00EDB283
:1005C000002D18D00020DFF85C19A1F8B40000203D
:1005D000DFF85019A1F8B8000020DFF8481981F8B9
:1005E0003101DFF8400990F8960150F00C00DFF877
:1005F000341981F89601DFF83009C668E4B24FF487
:10060000004240F2E7300021E2FB04014FF47A722D
:10061000002302F095FE90FBF6F0401DDFF8041970
:1006200081F88901DFF8FC08D0F8900110F580000E
:10063000DFF8F01891F88911083906FB1100DFF88E
:10064000E418C1F88C0170BD2DE9F84F04005FF08B
:1006500010095FF00008DFF8D857424649462800E5
:1006600002F092F808250026DFF8C0783200290051
:10067000380002F089F8DFF8AC08D0F89811DFF8FC
:10068000B008FFF758FDDFF89C08D0F81411DFF828
:10069000A408FFF750FD1022DFF89418002002F0A4
:1006A00057F994F801A0DFF88808FFF723FD40F61A
:1006B000FF71DAF107020B00134113EA0007DFF8BC
:1006C0006408D0F890B11E2000FB07F04FF4004101
:1006D00081FB00014FF47A72002302F031FE10EB2F
:1006E0000B00DFF85418081860600020A070217813
:1006F000012010FA0AF0801CC0B2FFF71CFF6168ED
:10070000081AA060DFF81C08007CE070BDE8F18FDB
:10071000F8B504000D00A068401B002801D401209A
:1007200028E0A0780600F6B2802E01DB002021E050
:10073000012094F9011010FA01F7BE19A6703000DB
:10074000C0B2802801DB002014E02178B819801C99
:10075000C0B2FFF7F0FE6168F6B2DFF8E02702FBF7
:1007600006F211EBE211081AA060DFF8B807007C6E
:10077000E070D0E7F2BD38B5040003F080F9050061
:10078000EDB203F07CF950EA052189B20800B0F51A
:10079000004F07DD89B24FF4004291FBF2F303FBF7
:1007A00012131800E4B2002C0AD00A00D2B2E4B24C
:1007B00092FBF4F304FB13224FF4004303FB02000B
:1007C00032BD38B504000D002800C0B2FFF7D3FFDA
:1007D00000190400DFF84C0790F8A300002806D0A9
:1007E000DFF84007D0F8A400201A01280DDBDFF85D
:1007F0003407C0F8A440DFF82C07B0F8AC0050F480
:100800008070DFF82017A1F8AC0031BDDFF81427A5
:1008100082F8B010704710B452B212F1800F03D0BA
:10082000DFF8003783F8AF20DFF8F83693F8B03000
:10083000C9B28B420DD0DFF8EC3683F8B010DFF888
:10084000E436B3F8AC3053F40063DFF8D846A4F8CC
:10085000AC3010BC70472DE9F84F0400402500264D
:10086000DFF8987C32002900380001F08DFF202746
:100870005FF00008DFF8889C42463900484601F0E6
:1008800083FF5FF020095FF0000ADFF8B8BC524632
:100890004946584601F078FF3F20DFF88816A1F856
:1008A000A000E4B2002C01D0002500E006250020C5
:1008B000C0B2062815DADFF8901CEDB251F8251009
:1008C000DFF86026C0B212EB800211643F21DFF82E
:1008D0005426C0B212EB4002A2F88010401C6D1CDE
:1008E000E6E7E4B2002C09D13F20DFF83816A1F882
:1008F0008A00FF20DFF82C16A1F882004FF47A70EE
:10090000DFF8201608840E20DFF8181681F8220080
:1009100003F0B5F8102190FBF1F202FB1102DFF8B1
:10092000040680F823206420DFF8F81508850E20DF
:10093000DFF8F01581F82A0003F0A1F8102190FBF0
:10094000F1F202FB1102DFF8DC0580F82B200A200F
:10095000DFF8D01508861B20DFF8C81581F83200B3
:1009600003F08DF8102190FBF1F202FB1102DFF889
:10097000B40580F82B2003F06FF9DFF8A815486361
:10098000DFF8A015C862DFF89C154862BDE8F18F5A
:1009900030B40400E4B2102C01DB00204BE05BB269
:1009A00013F1010F1ED1DFF8B80C814206D3DFF836
:1009B000B40C814202D251F002011DE0DFF8A80C14
:1009C000814203D3DFF8A40C814207D3DFF8A00CE7
:1009D000814206D3DFF89C0C814202D251F0010122
:1009E0000AE009E05BB2042B01DB002023E0880869
:1009F00080005BB253EA0001DFF82805E4B210EB97
:100A00008400016492B2002A01D13F2000E010006E
:100A1000DFF81055E4B215EB4405A5F88000DFF8C7
:100A20000405B0F8A0000125A5402843DFF8F454E0
:100A3000A5F8A000012030BC704710B50400601E6E
:100A4000FFF75EFB000A64214843DFF82C1C884254
:100A500005D3DFF8201C884201D20021080010BD18
:100A600010B40200D2B2002A0BD189B2002908D0FA
:100A7000DFF8B004B0F8A000C0430B009BB2034203
:100A800001D000201BE00020C0B2102812DA0123A0
:100A900083400C00A4B21C420AD0DFF88834C0B2F4
:100AA00013EB80031B6C002B02D10123834099437D
:100AB000401CE9E7DFF86C04A0F8A010012010BC8E
:100AC000704738B50400DFF85C04DFF8581491F87B
:100AD000A21010EB8100056CDFF8480490F8471174
:100AE000DFF84004C089FFF7A5FCDFF8381415F0E3
:100AF000030211EBC2012031AA089200DFF824346E
:100B00009A608A78DFF81C349A740A8802FB0042E3
:100B10004A60DFF8102492F8A320002A0AD0DFF8F8
:100B2000042492F9A32010FA02F21219DFF8F43328
:100B3000C3F8A42031BDF0B401000F22DFF83C0B54
:100B4000401800230024E4B2042C18DA0125A54043
:100B50001600F6B22E4210D0DFF8C853E4B215EBFF
:100B6000C4056D6A451B012D07DB2300DFF8B45374
:100B7000DBB215EBC3056D6A2800641CE3E7DFF800
:100B8000A443DBB214EBC30494F823400025EDB278
:100B9000102D3FDA641CE4B2102C00DB103CDFF8AF
:100BA0008463B6F8A0600127A7403E4230D0DFF84A
:100BB0007463E4B216EB4406B6F88060DFF8647341
:100BC00097F8B07017F00F07B4461FFA8CFC3CFA88
:100BD00007FC5FEACC761BD5DBB2DFF84863E4B2F2
:100BE00016EB840696F8406016F00306B3420FD168
:100BF000CC4DDBB215EBC30585F82340C94DDBB204
:100C000015EBC30595F82350C64E86F8A25008E0B0
:100C10006D1CBCE701259D40AA43D2B2002A00D03A
:100C20008CE7F0BC704780B50020BE4981F84701D1
:100C3000BC48BC4991F8881110EB8100006C800819
:100C40008000B8498860032003F096F8012180B243
:100C500003F09DF8112180B203F0A0F8B149C881DA
:100C600001BD80B502F00BFF062190FBF1F201FB04
:100C70001200AC4981F8A2000E20AA4981F8AF0009
:100C800005210020FFF7C2FD0120FFF7E4FDA54884
:100C9000B0F8AC00000501D503F092FA0820FFF788
:100CA0006AFDA049496A40189E49086001BD38B5EF
:100CB00000249C4890F8A200401C9A4981F8A200A8
:100CC000984890F8A200062803D10020954981F8A1
:100CD000A200944890F84401401C924981F84401D4
:100CE000904890F84401C00711D48E4890F8B000A5
:100CF000002802D10120040009E08A4890F8B000E1
:100D000003F064FA0100C9B20120FFF77FFD8548B6
:100D1000B0F8AC004FF2FF7108408249A1F8AC0076
:100D200002F09AFF05007F48406A281A002802D581
:100D30007C48406A0500FF217A4890F9B0200800FD
:100D40001041C0B2FFF717FD401910F5C0307549CA
:100D50000860E4B2200032BD0000000098020020CC
:100D60009E02002010B5040001F01AFB10BD10B562
:100D700004002000C0B202F0A9FA01F011FB10BD7E
:100D800010B5040001F094FC01F078F80C20FFF796
:100D9000EEFF10BD00206349C1F81C016148D0F886
:100DA0001C016049C1F8180100205E4981F8B200B9
:100DB00000205C4981F825015A4981F824015949EC
:100DC00081F82201574981F820010020554981F816
:100DD0002801544981F82901524981F830015149CB
:100DE00081F8270100204F4981F8330100204D4947
:100DF00081F8AE007FF00B004A4981F82101002004
:100E0000484981F82A01DFF8D40B4649C1F82C0182
:100E10000520444981F88801DFF8C00B4149C1F839
:100E2000400103203F4981F834017047A2020020AD
:100E3000E801002070B53B4890F84701112801D027
:100E400003F0BEF93A4C07212000FFF786F9E1795B
:100E5000C0B2814201D000205FE02000FFF750F9CE
:100E600005022D0A2F48D0F8A800854202D05FF075
:100E7000FF3052E02B4890F8960110F0FC00294911
:100E800081F896012748407B264981F8950125483D
:100E9000007B244981F8940122484068DFF8401B18
:100EA00008182049C1F89001E01CFFF729F91D49F5
:100EB000C1F898011B4890F8960150F001001949BB
:100EC00081F8960114F10F00FFF714F906000F21C5
:100ED0002000FFF742F9B6B2864201D001201CE0A3
:100EE00014F10800FFF70CF900120E49C1F8A00137
:100EF00014F10B00FFF704F900120A49C1F8A4012C
:100F0000207A084981F89C01064890F8960150F033
:100F10000200044981F89601022070BDE80100201A
:100F200070580008400000200C5800089001002074
:100F3000880100208C0100205C0F0100A3703D009F
:100F40002DE9F04F8DB0DFF89C8A98F800008DF8FD
:100F500009009DF8090010F0E0008DF80800DFF8A6
:100F6000800D90F84701099009980C280CDB9DF83A
:100F700009000321084207D19DF8080060280AD023
:100F80009DF80800A02806D00020DFF8541D81F845
:100F900047010020AEE298F80500069018F1010024
:100FA000FFF7AEF80B9018F10600FFF7A3F8040066
:100FB000069810F00F0008900698C0F3401010F04B
:100FC00001000A90089810F108050998001F039085
:100FD0000B98DFF80C1DD1F814118842D4D1039876
:100FE000A842D1DB5FF0FF30049000200790039807
:100FF000854203DA15F8080004906D1CDFF8E00C58
:10100000D0F81801DFF8D81CD1F81811611A89B28C
:101010000C1803980190CDF8008001232200DFF81E
:10102000C00CD0F81411DFF8BC0CFFF7E1F8002871
:10103000AAD0DFF8AC0CD0F8180184421AD2DFF83D
:10104000A00CD0F81801A0429EDBDFF8940CD0F879
:101050001801401E844209D1DFF8840C90F8200169
:10106000002803D09DF80800A02800D08CE70120BC
:10107000079013E0601CDFF8681CC1F818019DF8A8
:101080000800A02805D12020DFF8541C81F8200199
:1010900004E00020DFF8481C81F82001DFF8400C54
:1010A00090F82001002802D10698C00609D5DFF883
:1010B000300CB0F8AC0050F01000DFF8241CA1F8A0
:1010C000AC000020DFF8181C81F8B200DFF8100C2B
:1010D00090F8B200DFF8081C81F82201DFF8000C5C
:1010E00090F9210110F1800F05D07FF00B00DFF89F
:1010F000F01B81F82101DFF8E80B90F90C00B0F14A
:101100004006DFF8DC0BC089FFF780F9301A059044
:101110000598002805D50020DFF8C41B81F82301BD
:101120000DE00598FF2805DBFE20DFF8B41B81F8F1
:10113000230104E00598DFF8A81B81F8230118F1CA
:10114000080600270898874280F27381B85D02285C
:1011500012D0032812D0042800F0B280052874D0E1
:1011600006286BD0072800F0D080112800F00881F5
:10117000122800F018815CE1FF1CE3E7B81990F831
:101180000190B819801CFEF7B5FF8246B8190079A6
:1011900010F0F0008DF80100B819007910F00F0080
:1011A0008DF800007F1D8720DFF8341B81F82401B3
:1011B000514689B29DF80100FFF752FC002809D181
:1011C000DFF81C0B90F8240110F0FE00DFF8101B74
:1011D00081F824015FFA89F95FEA191B5846C0B209
:1011E00002F0FEFF002809D1DFF8F40A90F824018C
:1011F00010F0FD00DFF8E81A81F82401DFF8E00ABA
:1012000090F8240110F07F00072811D19DF800000C
:10121000DFF8CC1A81F8AE00DFF8500C5FFA89F9DC
:1012200019F00F010A565946C9B20420FFF7F3FA24
:101230000120DFF8AC1A81F8220183E70120DFF8F2
:10124000A01A81F825017F1C7CE7B819407810F0BE
:101250000F09B819801CFFF7F0FB82467F1D802024
:10126000DFF87C1A81F830014846C0B202F0B8FFBE
:10127000002809D0DFF8680A90F8300150F0020029
:10128000DFF85C1A81F83001BAF1000F09D0DFF8FD
:10129000500A90F8300150F00100DFF8441A81F84C
:1012A0003001DFF83C0A90F83001832807D1DFF8DD
:1012B000300A80F82A91DFF8280AC0F82CA141E70B
:1012C000B81990F80190BF1C5FFA89F9B9F1FF0FC6
:1012D00009D1DFF80C0AB0F8AC0050F04000DFF89C
:1012E000001AA1F8AC0019F00F00DFF8F41981F82A
:1012F000A30002F0B1FCDFF8E819C1F8A400012056
:10130000DFF8DC1981F828011CE7B81990F8019082
:10131000B819801CFFF791FB8246B81990F805B008
:101320008020DFF8BC1981F82901BAF1000F25D01F
:101330005FF0FF334FF6FF701BF00F0188404FF650
:10134000FF715FFA8BFB5FEA1B12D2F10F028C4632
:101350005CFA02FC1CEA000292B251464846C0B256
:10136000FFF716FB002809D0DFF8740990F829016F
:1013700050F00300DFF8681981F82901BF1DE1E68C
:10138000B819401CFFF759FB3F1D8021002805D0EC
:1013900051F00101DFF84829C2F84001DFF8402987
:1013A00082F83311CEE6DFF8380990F8AC008007F8
:1013B0003DD4B819C078DFF8281981F88801DFF822
:1013C0002009B0F8AC0050F00200DFF81419A1F8C1
:1013D000AC00DFF80C0990F83201002801D102F0CE
:1013E000EFFEB819401CFEF785FEDFF8F418D1F8BF
:1013F000049080B21E2148434FF4004181FB00015C
:101400004FF47A72002301F09BFF10EB0900DFF824
:101410000C1B0818DFF8C818C1F890010020DFF88D
:10142000C01881F8960101211E20FFF7C5F83F1D65
:1014300088E6079800281CD10498002819D403983E
:10144000401B012815DB0498012802DADFF8940814
:1014500001E0DFF8CC0A0399491B019115EB080163
:10146000009101232200DFF87818D1F81411FEF75B
:1014700049FFDFF86C0890F8440100280ED00A9864
:10148000002801D0802000E04020DFF8541891F8B7
:1014900045110843DFF8481881F8450104980028F1
:1014A00013D5DFF83C0890F8450150F02000DFF834
:1014B000301881F84501DFF8280880F846510020EF
:1014C000DFF81C1881F8470113E0DFF8140890F8E2
:1014D000450150F01000DFF8081881F84501DFF8E9
:1014E000000880F846510398401BDFF8F41781F894
:1014F000470101200DB0BDE8F08F00008000002002
:10150000C000002080B50220DFF8101C81F84501E2
:10151000DFF8080C90F82A0102F02EFCDFF8FC1B23
:10152000C881DFF8F80BD0F82C01DFF8F01B8860D9
:101530000020DFF8E81B81F84701022002F05EFB83
:1015400001BD0000600000203C57000838B50400D1
:101550000D00DFF88C0700682018DFF8C41BDFF8E7
:10156000802792F82A2151F82210032202FB010061
:10157000DFF86C1748602A00DFF864074068B0F1B4
:101580004101DFF8A00B02F0A7FB31BD10B504004C
:101590000120DFF8881B81F845010121DFF87C0B71
:1015A000C08902F0F4FBDFF8741BC8810020DFF86B
:1015B0006C1B81F84701DFF8640BC461022002F064
:1015C0001DFB10BD38B504000D00DFF81407B0F89E
:1015D000AC0040F20261084040F2024188420DD165
:1015E000DFF8440BFFF730F8DFF8F406B0F8AC0092
:1015F00050F40070DFF8E816A1F8AC00DFF8E00660
:10160000007C07280CD1DFF8D80600682018401F9E
:10161000DFF8CC1648600820DFF8C416087414E020
:10162000DFF8BC0600682018DFF8F41ADFF8B026EF
:10163000527C51F82210032202FB0100DFF8A016B1
:1016400048600520DFF8981608742A00DFF8900635
:101650004068B0F14101DFF8CC0A02F03DFB31BD3A
:10166000C0FDD13351CED53300A1BC33C1C8C53381
:10167000A091D6338125DB33C0557033000050462E
:1016800010B504000820FFF772FB10BD2DE9F041F2
:10169000DFF84C0690F84501012807D1DFF8400635
:1016A00090F84701002801D102F08AFDDFF83006EA
:1016B00090F8AC00000601D402F082FDDFF82006AD
:1016C00090F8470100284BD1DFF8140690F8AC00E1
:1016D000400726D4DFF8080690F8AC00800601D455
:1016E00002F06EFDDFF8F805B0F8AC004FF65F7160
:1016F0000840DFF8EC15A1F8AC00DFF8E40590F83D
:10170000B2000A2808DADFF8D80590F8B200401CC9
:10171000DFF8CC1581F8B2000920FFF728FB012083
:10172000C2E0DFF8BC05B0F8AC004FF67F710840AE
:10173000DFF8AC15A1F8AC00FFF7B9FA0400E00738
:1017400002D5DFF8285C01E0DFF8245C02F084FABF
:101750002A002118DFF8CC0902F0BEFA0120A3E02C
:10176000DFF87C0590F84841DFF8740590F84751A0
:10177000DFF86C05EDB2281810F5A270FEF7C0FC7A
:101780000600EDB2112D02D0EDB2212D04D1E4B24C
:1017900014F0E300202808D0DFF8440590F8450154
:1017A000C00701D500207FE08EE7EDB2691EDFF8AB
:1017B000C40BFEF799FDEDB2291F8A48FEF77CFDA8
:1017C0000028E9D0DFF8B00BFEF79AFC0700DFF83D
:1017D0001005C0F81471DFF8A40BFEF791FC0002AD
:1017E000000ADFF8FC14C1F8A8000020FFF733F866
:1017F000EDB2122D1CDB0D2005005FF003085FFA2F
:1018000088F8B8F1080F13DADFF8D404EDB228181D
:1018100000F24710FEF774FC5FF0FF330022010A6C
:101820004046C0B2FFF7B4F818F10108ED1CE6E736
:10183000DFF8EC36DFF8AC24DFF8381BDFF8A00463
:10184000B0F8F200401E80B2FEF7A4FDDFF890046D
:1018500090F8AC002421084201D102F0B1FCDFF87D
:10186000800490F8AC0080060DD5DFF8740490F881
:10187000B210DFF86C0490F8B00002F0BFFCDFF8A3
:10188000601481F8B000DFF85804B0F8AC004FF6EF
:1018900059510840DFF84814A1F8AC00FFF77AFA74
:1018A0000620FFF764FA0120BDE8F08110B50400BE
:1018B000DFF82C0490F84701002805D10020DFF85C
:1018C000201481F8450101E0FFF7E0FE10BD10B5DE
:1018D0000400DFF8AC0ADFF84418C861FFF712FE15
:1018E00010BD10B50400DFF8F80390F84701002898
:1018F00003D0FFF7CBFE002805D1DFF8881A5FF48C
:101900004030FFF723FE10BD10B50400DFF8780A61
:10191000FFF73CFE10BD10B50400DFF8701A5FF44D
:101920002030FFF74FFE10BD10B5040000F0FAFAAA
:1019300010BD38B50400DFF8A80390F8470100286F
:1019400018D1DFF84C0A02F09EFC0020DFF890135B
:1019500081F8450102F080F905000220FEF70BFF37
:10196000DFF8302A401910F5C031DFF8B80702F06F
:10197000B3F905E0DFF8200A02F085FC00F0D2FAA6
:1019800031BD10B50400DFF8140ADFF89017C86104
:10199000FFF7B8FD10BD10B50400DFF8440390F860
:1019A0004701002803D000F0BDFA002805D1DFF878
:1019B000F41C5FF48030FFF7C9FD10BD10B50400C2
:1019C000DFF8E40CFFF7E2FD10BD10B50400DFF80E
:1019D000DC1C4FF40040FFF7F5FD10BD08E6D333E3
:1019E00085EDFFFF880100202DE9F04383B0BC485E
:1019F00090F8AC0010F01800102801D0012400E08D
:101A00000024E4B2002C03D0B54890F8BC5000E0AC
:101A100000250826B248B0F8AC0040F20241084068
:101A200040F20241884211D11020AD49711881F86D
:101A30004801AB4890F83401A94991F8351150EAB2
:101A40000110A749711881F84901B61CA44890F803
:101A50002801002809D00420A149711881F8480103
:101A6000761C00209E4981F828019D4890F830019D
:101A7000002812D005209A49711881F84801984829
:101A800090F8300110F003009549711881F8490170
:101A9000B61C0020924981F83001914890F8250148
:101AA000002816D006208E49711881F848018C480C
:101AB00090F823018A49711881F84901FEF74BFB20
:101AC0008749711881F84A01F61C0020844981F881
:101AD0002501834890F82401002812D00320804972
:101AE000711881F848017E4890F8240110F0070031
:101AF0007B49711881F84901B61C0020784981F8AA
:101B00002401774890F83201002805D0122074494A
:101B1000711881F84801761C714890F8220100285C
:101B20000CD06F4890F92101002803D500206C49A2
:101B300081F8210100206A4981F82201684890F863
:101B40003301002812D011206549711881F848012D
:101B5000634890F8330110F001006149711881F871
:101B60004901B61C00205E4981F833015C4890F8B9
:101B70002901002810D007205949711881F848011F
:101B8000574890F829015649711881F84901B61C47
:101B90000020534981F82901192E01DB02F010FBC6
:101BA000E4B2002C02D0EDB2681D00E004208719D9
:101BB000FFB2412F03DB00200400301D070040204E
:101BC000474981F84801464890F92101002801D48D
:101BD000402000E00020424991F82011404A92F84C
:101BE0002621114308433100083908433C4981F854
:101BF0004D013B48D0F81411DFF87807FEF79BFA47
:101C0000374890F84401002806D13548D0F81C0127
:101C1000401C3349C1F81C013148D0F81C01411E59
:101C200089B2DFF8180BFEF781FA00202C4981F801
:101C30002001E4B2002C3DD0294890F8BB000028D8
:101C40000CD08020264981F84801254890F84401AD
:101C5000002803D10120224981F84401204890F84E
:101C6000BA001F49711881F84801EDB2DFF8D08A37
:101C70001B48301800F249192A004146484600F036
:101C8000C7FD174890F8BA00002801D1154800E0B8
:101C9000A348EDB201951249711801F24911009162
:101CA00000230F49D1F81C114A1E0D49D1F8141117
:101CB000FEF728FBFFB2381F0190DFF8880A00907A
:101CC00000230748D0F81C01421E0548D0F8141123
:101CD0000448FEF7B9FA024880F84771BDE8F78377
:101CE000400000203401002010B50400002001F065
:101CF00085FFDFF8300401F0C2FFDFF84C0A90F8EE
:101D0000470100280ED1DFF8400AB0F8AC004FF6CA
:101D1000FC710840DFF8301AA1F8AC000120FFF791
:101D200026F832E0FFF786F8012812DA0020DFF803
:101D3000181A81F84701032001F060FFDFF80C2A30
:101D4000DFF8040AD0F89011DFF8D80301F0C4FFDF
:101D50001BE001210D20FEF72FFCDFF8EC09B0F8A5
:101D6000AC004FF6FE710840DFF8DC19A1F8AC00BA
:101D7000DFF8D409B0F8AC0050F00200DFF8C81961
:101D8000A1F8AC000220FEF7F2FF10BD80B5DFF82D
:101D90008C03D0F81401002805D0DFF8800390F8F8
:101DA000AC00400701D502F00BFADFF8700390F8A1
:101DB000AC00400631D40020DFF8601381F89601B2
:101DC000DFF8581381F82001DFF8501381F844013F
:101DD000DFF84803B0F8AC004FF67F71084050F0D0
:101DE0000100CE49A1F8AC00FEF71DFF01F034FF61
:101DF00010F58100C949C1F89001C848D0F8900198
:101E0000C6494860DFF84429C4484168DFF8400902
:101E100001F062FF032001F0F1FE01BD38B50400BE
:101E2000DFF820592C70681C01F004FA15F1090044
:101E300001F00AFADFF81009B0F8F21015F11100FC
:101E4000FEF774F913212800FEF724FA1720DFF8B3
:101E5000F81881F84701DFF8F008B0F8F200401CEC
:101E6000DFF8E418A1F8F20031BD0000FC580008CA
:101E700010B504000520FEF77AFF10BD80B5A74815
:101E8000D0F8140100282FD1A44890F8AC0090217C
:101E9000084201D002F094F90020A04981F8A30083
:101EA0009E48B0F8AC004EF2DE7108409B49A1F8A4
:101EB000AC000020994981F8BB00984981F84401A1
:101EC000964981F8B200FEF7CCFE9448B0F8AC0019
:101ED00050F004009149A1F8AC00DFF8781891485F
:101EE00001F0E4FE012000E0002002BD10B5040076
:101EF000DFF8540890F8470100280CD00420DFF8E0
:101F0000481881F84501FFF71BF8002803D00D2081
:101F1000FEF72DFF01E000F043FA10BDEC01C0FF19
:101F20004401002080B5DFF8200890F8AC000006DE
:101F300001D402F045F9DFF8100890F847010028B5
:101F400040F0DC80DFF8000890F8440100283DD024
:101F5000DFF8F40790F84401082831DADFF8E807E1
:101F600090F84401401CDFF8E01781F84401DFF8E5
:101F7000E807DFF8D41791F84411095CDFF8C807C7
:101F800090F8B00002F03AF97FF07F020100C9B288
:101F90000220FEF740FC0321DFF8AC074068FEF7A3
:101FA00010FCDFF8A407B0F8AC004FF67F710840D2
:101FB000DFF89417A1F8AC0000F0F2F90120ABE0D3
:101FC0006020DFF8841781F8450104E02020DFF865
:101FD000781781F84501DFF8700790F9210110F1B9
:101FE000800F08D0DFF8600790F82101401CDFF86F
:101FF000581781F821010020DFF84C1781F84701BC
:10200000DFF8440790F84701DFF83C1781F84601F4
:10201000DFF83407B0F8AC004FF677710840DFF80E
:102020002817A1F8AC00DFF8200790F84501072138
:10203000084213D0DFF81007B0F8AC00C0040DD58B
:10204000DFF80407B0F8AC004EF6FF710840DFF887
:10205000F816A1F8AC000F20FEF789FE0A20FEF763
:1020600086FEDFF8E40690F921010D281EDBDFF87B
:10207000D80690F8B00002F0A9F87FF07F020100C6
:10208000C9B20320FEF7C7FB0620DFF8BC1681F8B3
:102090002101DFF8B406B0F8AC0050F48150DFF84D
:1020A000A816A1F8AC000E20FEF761FEDFF8980636
:1020B00090F8320100281FD0DFF88C0690F8AC00B1
:1020C000800708D50220FEF752FE0020DFF87816C0
:1020D00081F8320110E0DFF8700690F83201401EFE
:1020E000DFF8641681F83201DFF85C0690F83201FF
:1020F000002801D1FFF74AFE01200DE0FEF720FF86
:10210000002808D1DFF8400690F84501C00701D546
:10211000002001E016E77BE702BD00004000002040
:102120000C58000854000020740100202DE9F041F3
:102130000400DFF81406D0F89051DFF80C0690F890
:102140009661DFF8040690F84701002800F07F80D0
:10215000FEF770FE01287ADB042007000320064208
:1021600004D100210D20FEF727FAD8E0DFF8D805CA
:10217000D0F89001404215EB0008DFF8CC0590F84C
:102180003101002814D0DFF8C005B0F8B4000FFA10
:1021900088F8DFF8B415B1F9B410B8EB0101DFF835
:1021A000A82592F83121521C91FBF2F111EB0008A5
:1021B000DFF8940590F89601400723D4DFF88805EE
:1021C000B0F8B400B0EB080000B2002801D500B2AE
:1021D0004042DFF87415A1F8B600DFF86C15B1F9CC
:1021E000B81000B2814203DADFF85C15A1F8B8003C
:1021F000DFF8541591F8961111F0F701DFF8482532
:1022000082F89611DFF84005A0F8B4800020DFF8CE
:10221000381581F8B200DFF8300590F8B200DFF829
:10222000281581F83101DFF8200590F8960110F0AB
:10223000FB00DFF8141581F89601DFF80C0590F823
:1022400096010321084254D101F0BAFF51E0032066
:102250000700DFF8F404D0F8900110F58000DFF8F3
:10226000E814B1F9B410401ADFF8DC14C1F8900199
:10227000DFF8D404D0F898018030DFF8CC14C1F82E
:102280009801DFF8C40490F83101401CDFF8B8145D
:1022900081F831010421DFF8B004D0F89001DFF8B3
:1022A000BC241018FEF78DFADFF89C0490F8310179
:1022B000152809DBDFF89004B0F8AC0050F02000DE
:1022C000DFF88414A1F8AC00DFF87C0490F88901F1
:1022D00065280EDBDFF87004B0F8AC004FF6DD11B6
:1022E0000840DFF86414A1F8AC000B20FEF73FFDB6
:1022F00023E003210020FEF71EF9DFF84C14D1F88B
:10230000901111F58001081ADFF83C14C1F88C0116
:10231000DFF83404007CDFF8301481F88901DFF83D
:102320002804B0F8AC00800503D5DFF83404FEF7CC
:102330008BF93800C0B2FEF71AFDBDE8F08110B588
:102340000400DFF82004DFF80014C861022001F067
:1023500055FC10BD10B50400DFF80C04DFF8E813DD
:10236000C861022001F04AFC10BD0000811600087F
:10237000650D0008890100208F0100208C010020DC
:10238000AD180008CF180008E31800080919000864
:10239000EC5800082919000888580008331900086B
:1023A0002DE9F843DFF8A00390F8AC00C121084202
:1023B00040F07681DFF89003D0F81401002808D1AE
:1023C000DFF8840390F8AC00400702D4FFF756FD15
:1023D00066E101F041FC040000250026DFF86803F7
:1023E00090F8AC00800710D514F14100DFF85813C5
:1023F000D1F88C11401A012801DB01F0E1FEDFF871
:102400004803D0F88C0141380500DFF83C0390F810
:10241000AC003C21084200F0D580DFF82C0390F896
:10242000AC002421084201D0012700E00027DFF89A
:102430001803B0F8AC00000512D52000FEF77BFBB6
:10244000DFF8041308600600DFF8FC02B0F8AC0007
:102450004FF2FF710840DFF8F012A1F8AC0003E082
:10246000DFF8E40200680600DFF8DC0290F8A30061
:10247000002805D1DFF8D002B0F8AC00C0050BD5BC
:10248000DFF8C402D0F8A400301A002804D5DFF821
:10249000B802D0F8A4000600DFF8AC0290F8AC0057
:1024A000800714D5FFB2002F02D05FF4902001E026
:1024B0005FF440308019401B012808DB1021DFF851
:1024C0009C024019FEF77DF90020060080E0301BD9
:1024D000413800286CD5DFF8700290F8B080FFB268
:1024E000002F1DD0DFF8600290F8AC0080060BD5FD
:1024F000DFF8540290F8B2104046C0B201F07EFE00
:102500008046C020814601E0002081464846C0B296
:10251000FFF784FCDFF85402DFF82C12C86121E0D9
:10252000DFF82402D0F8180110F1800F06D3DFF88D
:102530004012DFF81C0201F0B9FBB1E0DFF808023D
:1025400090F84401002806D1DFF8FC01D0F81C0106
:1025500010F1010FEBD0FFF747FADFF81802DFF8B0
:10256000E811C8614046C0B201F0B8FEDFF8D811EA
:1025700091F8B11080B201F0B9FEDFF8CC11C8813A
:10258000DFF8C40180F81180DFF8BC01B0F8AC00BE
:102590004FF6EF61084050F40860DFF8AC11A1F885
:1025A000AC003000FEF78DFA012001F027FB77E048
:1025B000DFF8940190F8AC0080076BD5002E07D1AE
:1025C000761C05E0DFF8800190F8AC00800767D545
:1025D000DFF87401B0F8AC0080053AD514F1410180
:1025E000DFF87C01FEF794F8002832D0002E05D0E9
:1025F0005548D0F83C01301A00284BD4524890F886
:102600003701514908745048D0F83C014E494860A0
:102610004D48D0F840014C4988604B4890F834014F
:1026200001F0AAFB4849C8810020474981F84701C9
:1026300045484068001B4130002801D501F0C0FD2D
:102640004D4A41484068B0F14101414801F044FB26
:1026500026E0002E02D0701B00281BD4FEF7E3FA00
:10266000394890F88901384908743748D0F88C0106
:1026700035494860601B002806D43A483249C86191
:10268000022001F0BBFA0BE03C4A2900304801F07F
:1026900023FB05E03A4AB6F141012D4801F01CFB4D
:1026A000BDE8F1838319000897190008BD190008D7
:1026B00070B5002001F0A2FA254801F0E0FA4FF4CD
:1026C000D4740025204E2A002100300000F05CF870
:1026D00000201D49C1F8140101F0D1F90600F6B23D
:1026E00001F0CDF950EA06201749A1F8F2000020C8
:1026F0001549A1F8AC000020134981F8B1008020F1
:10270000114981F8260100200F4981F82A011D484E
:102710000D49C1F82C011B480B49C1F840010320A9
:10272000094981F83401FF20074981F8350170BD5E
:1027300040200549A1F8AC00704700008E01002040
:10274000FD0000208801002040000020E91C000856
:1027500054000020711E0008905900085C0F010011
:10276000740100202D210008ED1E00081719000833
:10277000810D0008CB190008552300083F230008ED
:10278000650D000808E6D33362F30F2262F31F429F
:10279000401810F0030308D0C91A1FD3DB0748BF45
:1027A00000F8012D28BF20F8022D130030B4144684
:1027B0001546103928BF20E93C00FAD8490728BF40
:1027C00020E90C0048BF40F8042D890028BF20F8FC
:1027D000022D48BF00F8012D30BC7047C91818BF42
:1027E00000F8012DCB0728BF00F8012D704750F8E5
:1027F000041B61B150F8042BD30744BFA9F10103B6
:102800009A180023091F42F8043BFAD1EFE77047FA
:1028100062B38B0708D0521E11F8013B00F8013B50
:1028200000F024808B07F6D1830740F0208000BFA2
:10283000103A07D330B4B1E83810103AA0E8381095
:10284000F9D230BC530724BFB1E80810A0E8081043
:1028500044BF51F8043B40F8043BD20724BF31F891
:10286000022B20F8022B44BF0B7803707047083A04
:1028700007D3B1E80810083A40F8043B40F804CB0D
:10288000F7D25307E4E7000010B400221000042838
:1028900020DADFF8802952F82020DFF8783953F861
:1028A000203013F47F431B0253EA0262DFF86439DD
:1028B00053F820301B0A13F47F431A43DFF85439CE
:1028C00053F8203052EA1362DFF8483943F82020E9
:1028D000401CDCE7DFF83C29D26811002C2835DAEF
:1028E000042290FBF2F303FB1203002B21D1DFF84B
:1028F00028290B0CDBB29A5CDFF81C390C0AE4B215
:10290000E35C1B0493EA0262DFF80C390C00E4B2CA
:10291000E35C92EA0322DFF80039090EC95C5140FA
:10292000021F042392FBF3F2DFF8F03853F8222061
:102930005140DFF8E02812EB800252F8102C514091
:10294000DFF8D02842F82010401CC7E710BC7047C1
:102950002DE9F84F04000D001600FFF795FF200742
:102960000DD50020DFF8B818C860DFF8B41888600B
:10297000DFF8AC184860DFF8A818086067E0DFF8F7
:10298000A0080068DFF89818096811F47F4109026F
:1029900051EA0060DFF888180968090A11F47F41DC
:1029A0000843DFF87C18096850EA1160DFF87018F6
:1029B0000860DFF86C084068DFF86418496811F4B3
:1029C0007F41090251EA0060DFF854184968090A9A
:1029D00011F47F410843DFF84818496850EA116054
:1029E000DFF83C184860DFF838088068DFF83018F6
:1029F000896811F47F41090251EA0060DFF820186C
:102A00008968090A11F47F410843DFF814188968BE
:102A100050EA1160DFF808188860DFF80408C06821
:102A2000DFF8FC17C96811F47F41090251EA006020
:102A3000DFF8EC17C968090A11F47F410843DFF891
:102A4000E017C96850EA1160DFF8D417C860300099
:102A500040B20128C0F2D9835FEA447C04D414F068
:102A60000A0CBCF1020F14D1DFF8B4C7DCF800C0C7
:102A70006046DFF8ACC7DCF804C06146DFF8A0C7E9
:102A8000DCF808C06246DFF898C7DCF80CC0634683
:102A900051E05FEA847C13D5B6B2112E10DA5FF0F4
:102AA000000C6346624661466046B6B2102E02D103
:102AB0005FF0010C01E05FF0020C54EA0C143AE004
:102AC0005FF0000C6746102F1AD2B6B2B74202D29E
:102AD00017F805C007E0B6B2B74202D15FF0800C2C
:102AE00001E05FF0000C5CEA0E2E17F0030CBCF165
:102AF000030F03D1080011001A0073467F1CE2E7A0
:102B00005FEA847C17D5DFF818C7DCF800C09CEAC0
:102B10000000DFF80CC7DCF804C09CEA0101DFF814
:102B200000C7DCF808C09CEA0202DFF8F4C6DCF853
:102B30000CC09CEA0303DFF8DCC6E2461AF1800B06
:102B4000CDF800B0DAF800C09CEA0000DAF804C062
:102B50009CEA0101DAF808C09CEA0202DAF80CC02B
:102B60009CEA0303DAF814C0E646DAF818C0E04637
:102B7000DAF81CC0E146DAF810C06746DFF8A4C6F0
:102B800083465FFA8BFB5CF82BC09CEA0E0EDFF8E5
:102B900098C65FEA102B5FFA8BFB5CF82BC09CEAAF
:102BA0000808DFF888C65FEA104B5FFA8BFB5CF819
:102BB0002BC09CEA0909DFF878C65FEA106B5CF865
:102BC0002BC09CEA0707DFF85CC68B465FFA8BFBDD
:102BD0005CF82BC09CEA0808DFF84CC65FEA112BB2
:102BE0005FFA8BFB5CF82BC09CEA0909DFF83CC656
:102BF0005FEA114B5FFA8BFB5CF82BC09CEA07077E
:102C0000DFF82CC65FEA116B5CF82BC09CEA0E0E55
:102C1000DFF810C693465FFA8BFB5CF82BC09CEA8A
:102C20000909DFF804C65FEA122B5FFA8BFB5CF838
:102C30002BC09CEA0707DFF8F4C55FEA124B5FFA86
:102C40008BFB5CF82BC09CEA0E0EDFF8E4C55FEA54
:102C5000126B5CF82BC09CEA0808DFF8C8C59B46DD
:102C60005FFA8BFB5CF82BC09CEA0707DFF8B8C55E
:102C70005FEA132B5FFA8BFB5CF82BC09CEA0E0E0D
:102C8000DFF8A8C55FEA134B5FFA8BFB5CF82BC03B
:102C90009CEA0808DFF898C55FEA136B5CF82BC064
:102CA0009CEA0909DAF824C06146DAF828C06246CD
:102CB000DAF82CC06346DAF820C06046DFF864C555
:102CC000BB465FFA8BFB5CF82BC09CEA0101DFF886
:102CD00058C55FEA172B5FFA8BFB5CF82BC09CEAA8
:102CE0000202DFF848C55FEA174B5FFA8BFB5CF81E
:102CF0002BC09CEA0303DFF838C55FEA176B5CF86A
:102D00002BC09CEA0000DFF81CC5F3465FFA8BFB82
:102D10005CF82BC09CEA0202DFF80CC55FEA1E2BB0
:102D20005FFA8BFB5CF82BC09CEA0303DFF8FCC462
:102D30005FEA1E4B5FFA8BFB5CF82BC09CEA00003D
:102D4000DFF8ECC45FEA1E6B5CF82BC09CEA010163
:102D5000DFF8D0C4C3465FFA8BFB5CF82BC09CEA5B
:102D60000303DFF8C4C45FEA182B5FFA8BFB5CF83F
:102D70002BC09CEA0000DFF8B4C45FEA184B5FFA8E
:102D80008BFB5CF82BC09CEA0101DFF8A4C45FEA6E
:102D9000186B5CF82BC09CEA0202DFF888C4CB46B3
:102DA0005FFA8BFB5CF82BC09CEA0000DFF878C46C
:102DB0005FEA192B5FFA8BFB5CF82BC09CEA0101E0
:102DC000DFF868C45FEA194B5FFA8BFB5CF82BC035
:102DD0009CEA0202DFF858C45FEA196B5CF82BC06A
:102DE0009CEA03031AF1200ADDF800C0E245FFF473
:102DF000B9AEDAF814C0E646DAF818C0E046DAF8F8
:102E00001CC0E146DAF810C06746DFF818C48346F4
:102E10005FFA8BFB5CF82BC09CEA0E0EDFF808C44F
:102E20005FEA102B5FFA8BFB5CF82BC09CEA08086A
:102E3000DFF8F8C35FEA104B5FFA8BFB5CF82BC03E
:102E40009CEA0909DFF8E8C35FEA106B5CF82BC065
:102E50009CEA0707DFF8CCC38B465FFA8BFB5CF874
:102E60002BC09CEA0808DFF8C0C35FEA112B5FFAA9
:102E70008BFB5CF82BC09CEA0909DFF8B0C35FEA62
:102E8000114B5FFA8BFB5CF82BC09CEA0707DFF85D
:102E9000A0C35FEA116B5CF82BC09CEA0E0EDFF852
:102EA00084C393465FFA8BFB5CF82BC09CEA09094C
:102EB000DFF874C35FEA122B5FFA8BFB5CF82BC060
:102EC0009CEA0707DFF864C35FEA124B5FFA8BFBEB
:102ED0005CF82BC09CEA0E0EDFF854C35FEA126B5D
:102EE0005CF82BC09CEA0808DFF838C39B465FFA01
:102EF0008BFB5CF82BC09CEA0707DFF82CC35FEA6A
:102F0000132B5FFA8BFB5CF82BC09CEA0E0EDFF8EC
:102F10001CC35FEA134B5FFA8BFB5CF82BC09CEA87
:102F20000808DFF80CC35FEA136B5CF82BC09CEA5F
:102F30000909DAF820C06046DFF8DCC25FEA176BE7
:102F40001BF80CC090EA0C60DFF8CCC25FEA1E4BA5
:102F50005FFA8BFB1BF80CC090EA0C40DFF8B8C29C
:102F60005FEA182B5FFA8BFB1BF80CC090EA0C2071
:102F7000DFF8A4C2CB465FFA8BFB1BF80CC09CEABF
:102F80000000DAF824C06146DFF88CC25FEA1E6BED
:102F90001BF80CC091EA0C61DFF87CC25FEA184BA9
:102FA0005FFA8BFB1BF80CC091EA0C41DFF868C29A
:102FB0005FEA192B5FFA8BFB1BF80CC091EA0C211E
:102FC000DFF854C2BB465FFA8BFB1BF80CC09CEACF
:102FD0000101DAF828C06246DFF83CC25FEA186BEC
:102FE0001BF80CC092EA0C62DFF82CC25FEA194BA6
:102FF0005FFA8BFB1BF80CC092EA0C42DFF818C298
:103000005FEA172B5FFA8BFB1BF80CC092EA0C22CD
:10301000DFF804C2F3465FFA8BFB1BF80CC09CEA96
:103020000202DAF82CC06346DFF8ECC15FEA196BE4
:103030001BF80CC093EA0C63DFF8DCC15FEA174BA6
:103040005FFA8BFB1BF80CC093EA0C43DFF8C8C196
:103050005FEA1E2B5FFA8BFB1BF80CC093EA0C2374
:10306000DFF8B4C1C3465FFA8BFB1BF80CC09CEAC7
:1030700003035FEA847C5CD5C4F3011C5FFA8CFC1B
:10308000E646BEF1000F43D05FEAD07C67465FEAB8
:10309000D17C5CEA40005FEAD27C5CEA41015FEAF5
:1030A000D37C5CEA42025B00002F01D093F08703DF
:1030B000BEF1010EBEF1000FE6D1DFF864C1DCF80D
:1030C00000C090EA0C0CDFF858B1CBF800C0DFF874
:1030D00050C1DCF804C091EA0C0CDFF844B1CBF825
:1030E00004C0DFF83CC1DCF808C092EA0C0CDFF841
:1030F00030B1CBF808C0DFF828C1DCF80CC093EA87
:103100000C0CDFF81CB1CBF80CC014F0CF04D7E4E2
:10311000DFF80CC1CCF80000DFF804C1CCF80410D3
:10312000DFF8FCC0CCF80820DFF8F4C0CCF80C3095
:1031300061E05FEA447C2AD5B6B2112E01DB10278C
:1031400001E0B6B237005FF0000CE646BE4513D290
:103150001EF805C05FEA106B9BEA0C0C0EF805C068
:1031600000021EF0030CBCF1030F02D10800110095
:103170001A001EF1010EE9E7DFF8A4C0DCF80CC06C
:103180001CF1010CDFF898B0CBF80CC033E05FEA1B
:10319000106C85F800C05FEA104C85F801C05FEA4A
:1031A000102C85F802C0E8705FEA116C85F804C045
:1031B0005FEA114C85F805C05FEA112C85F806C05E
:1031C000E9715FEA126C85F808C05FEA124C85F875
:1031D00009C05FEA122C85F80AC0EA725FEA136C34
:1031E00085F80CC05FEA134C85F80DC05FEA132C1C
:1031F00085F80EC0EB7314F00A0CBCF1020F01D07D
:103200001035103E54F0080421E405480068BDE87C
:10321000F28F0000E80100200C56000898570008C3
:10322000980200209C5000089C4C00089C48000814
:103230009C44000870B504000825304E2A00310077
:103240002000FFF7E5FA70BD70B5040008252C4E8C
:103250002A0031002000FFF7DBFA70BD70B50400D2
:103260001025284E2A0031002000FFF7D1FA70BD4A
:1032700010B50400FFF71CFAFEF700FE10BDE0B524
:1032800000F0DAFC00F0CCFF1F4900A800F00EFDB2
:1032900000F042FD00200EBD10B504001B48007870
:1032A000002803D101201949087002E000201749C5
:1032B00008701648007800F0D5FF00F0CDFC144AE5
:1032C00000F6CC41200000F007FD10BD10B5040051
:1032D000E4B2200000F0E2FFE4B22000052802D0B2
:1032E000062804D009E00B48FFF7D6FF05E009489F
:1032F00000F0C5FC012000F0B5FF10BDD859000852
:10330000E05900080C59000871320008D40200206E
:1033100099320008B802002010F007007047C0F38F
:10332000C100C0B27047C0F3C01080B2704780B215
:10333000000A80B27047C0F34110C0B2704700006D
:1033400013F0004C03D55B42524263F100039CEA48
:10335000210C00F0178010B5644603D34942404267
:1033600061F1000100F00EF8640004D349424042CC
:1033700061F10001244203D55B42524263F1000334
:1033800010BD00001B4213D1094236D12AB1844638
:10339000B0FBF2F002FB10C2704700F0AFBFFCD3ED
:1033A0000022002370470B0002000021002070471C
:1033B000904271EB030CF6D370B5B1FA81F4B3FA15
:1033C00083F52C1BA340C4F1200532FA05F63343E4
:1033D000A2405FF00046E64002E05B085FEA32028E
:1033E000841A71EB030524BF204629467641F4D3A5
:1033F00002000B003000002170BD012ACFD970B54A
:10340000140C20D0B1FA81F4B2FA82F5C4F1200490
:103410006419B4F12006D6D3B2405FF00044F44002
:10342000002502E052085FEA3303C61A71EB020E70
:1034300024BF3046714664416D41F3D302000B0056
:103440002000290070BD0C46B1FBF2F102FB1145D2
:103450002D0445EA1045B5FBF2F402FB145580B289
:1034600040EA0545B5FBF2F002FB105240EA044089
:1034700070BD000038B504000D00002000F005FD0F
:1034800054F08000C0B200F081FD2800C0B200F00E
:103490007DFD012000F0F9FC31BD38B504000020AD
:1034A00000F0F3FC14F07F0000F070FD002000F04D
:1034B0006DFD0500012000F0E8FC2800C0B232BD1F
:1034C000F8B504000D001600002000F0DEFC54F0FA
:1034D0008000C0B200F05AFD0027FFB2F6B2B7423A
:1034E00005D2FFB2785D00F051FD7F1CF5E70120A9
:1034F00000F0CBFCF1BDF8B504000D001600002073
:1035000000F0C3FC14F07F0000F040FD0027FFB284
:10351000F6B2B74206D2002000F038FDFFB278556F
:103520007F1CF4E7012000F0B0FCF1BD10B50400F1
:103530000120FFF7B2FF10F0F80054EA0001C9B211
:103540000120FFF797FF10BD10B580242100C9B2FC
:103550000120FFF78FFF10BD10B500242100C9B274
:103560000120FFF787FF10BD38B5DFF87406C0896A
:10357000FFF7D2FE0400DFF86806C089FFF7CFFE30
:103580008501DFF85C06C089FFF7D5FE002805D06D
:10359000022809D005D3032809D00AE055F0080510
:1035A00007E055F0100504E055F0180501E055F06E
:1035B0002005E4B2052C02D0E4B2062C08D1DFF8D5
:1035C0002006C089FFF7ABFE002801D155F00105A8
:1035D000DFF80C06C089FFF7A6FE002801D155F0E0
:1035E0000205DFF8FC05C089FFF7A1FE00280BD01B
:1035F00055F00405DFF8E805C089FFF798FE0100E3
:10360000C9B22220FFF736FF2900C9B21D20FFF7FB
:1036100031FF2001603050F00401C9B21E20FFF7D5
:1036200029FF31BD38B5DFF8B80580680021C9042D
:1036300041EA5031C004DFF8AC250023FFF7A2FEB9
:1036400004000D00210CC9B20620FFF713FF200073
:1036500080B2010AC9B20720FFF70CFF2100C9B2EE
:103660000820FFF707FF31BD10B5DFF8740590F9AA
:10367000124064B2122C02DB1120040004E064B298
:10368000022C01DA02200400A01E50F08001C9B211
:103690000920FFF7EFFE10BD80B510210120FFF7D4
:1036A000E9FE0120FFF7F9FE102801D000F088FDA7
:1036B0000120FFF73BFF02210220FFF7DBFE802104
:1036C0000320FFF7D7FE01210420FFF7D3FE992145
:1036D0000520FFF7CFFE00212520FFF7CBFE0521B7
:1036E0002620FFF7C7FE12212720FFF7C3FED021B7
:1036F0003020FFF7BFFE40213120FFF7BBFEC12184
:103700002820FFF7B7FE94212920FFF7B3FEC1213F
:103710002A20FFF7AFFEFFF785FFFFF7A5FF342153
:103720004020FFF7A7FEDFF8B80490F84701411CDE
:10373000C9B23220FFF79EFEDFF8A40490F84711CB
:103740000020FFF797FEDFF8980490F84721DFF894
:1037500098140020FFF7B4FE012000F07EFB032048
:10376000FFF7E4FE01BD80B5FFF7EEFE0120FFF795
:1037700094FE000601D400F023FD0120FFF7D6FEE1
:10378000FFF7F2FEFFF74EFF0A20FFF786FE10F06C
:10379000F00050F00801C9B20A20FFF76BFEFFF7F6
:1037A00063FF34213920FFF765FEF0214020FFF749
:1037B00061FEFF211220FFF75DFEF7211120FFF7C8
:1037C00059FE00210E20FFF755FE00210D20FFF7C6
:1037D00051FEDFF80C0490F847112220FFF74AFE53
:1037E000DFF8FC0390F84721DFF8FC130020FFF717
:1037F00067FE012000F031FB0320FFF797FE01BDBB
:1038000080B50120FFF749FE0721084201D000F0F2
:10381000D7FCDFF8CC03C089FFF77EFD002802D17A
:10382000FFF73AFF01E0FFF79EFF01BD10B504006E
:10383000FFF78AFE0120FFF730FE000601D400F0FA
:10384000BFFC0120FFF772FEE4B2022C08D10A216E
:103850001D20FFF70FFE74211E20FFF70BFE03E073
:10386000FFF782FEFFF7DEFE23210C20FFF702FEAA
:1038700040212320FFF7FEFD3320FFF70EFE50F01E
:103880004001C9B23320FFF7F5FDDFF85403017C96
:103890001F20FFF7EFFD34213920FFF7EBFDC0219A
:1038A0004020FFF7E7FDFF211220FFF7E3FDCF489F
:1038B000E4B2205CC143C9B21120FFF7DBFD002058
:1038C00000F0CBFAE4B2002C07D1C548406800F004
:1038D000CEFB0620FFF72AFE02E00520FFF726FEBA
:1038E00010BD10B50400E4B2002C01D000F068FC5B
:1038F000FFF732FE0120FFF7D0FD000601D500F0F2
:103900005FFC0120FFF712FEFFF78CFE23210C2045
:10391000FFF7B0FD1E210D20FFF7ACFD0B2112209B
:10392000FFF7A8FD12211320FFF7A4FDAA211F20F5
:10393000FFF7A0FD12212720FFF79CFDD8213020A2
:10394000FFF798FD40213120FFF794FDC121282089
:10395000FFF790FD94212920FFF78CFDC1212A203B
:10396000FFF788FDFF212120FFF784FD02210220BF
:10397000FFF780FD80210320FFF77CFD012104205B
:10398000FFF778FD99210520FFF774FD38214020CD
:10399000FFF770FD002000F060FA9148406800F0E9
:1039A00066FB0520FFF7C2FD10BD10B50400012025
:1039B000FFF773FD0721084201D000F001FC8848A1
:1039C000C089FFF7A9FC002804D12000C0B2FFF78E
:1039D00088FF03E02000C0B2FFF728FF10BDF8B554
:1039E00000F08DFB012000F059FA00F035F920308D
:1039F00000F03DFB022000F051FA00F02DF9A33059
:103A000000F035FB0020FFF791FD4220FFF745FD58
:103A10000400E4B2222C01D000F0D2FB0220FFF718
:103A200005FF0120FFF739FD10F007000528F8D148
:103A30000125102D1ADA0026082E15DA2C20FFF7A2
:103A40002CFD10F001000700FFB22C20FFF725FD30
:103A500010F001008742F1D06548285C57EA400029
:103A600063496854761CE7E76D1CE2E71020604963
:103A700008700020FFF75AFD00F048FBF1BD10B5BB
:103A80005B480478E4B2002C01D100F099FBE4B269
:103A9000102C06D1102256490020FEF759FF0020B5
:103AA00004005348E4B2205C641C51490C70C0B25D
:103AB00010BDF8B5040000F0CFF805000120FFF7B5
:103AC000ECFC000655D51220FFF7E7FC0600300796
:103AD00003D5681E4249086042E070063AD5404866
:103AE000C089FFF71CFC002808D13D48C089FFF7BA
:103AF00013FC404931F81000281A05003848456089
:103B00001D20FFF7CAFC400703D52220FFF7C5FCA4
:103B100002E01320FFF7C1FC314981F84701102072
:103B2000FFF7BBFC0100C9B20D20FFF7A3FC2C4836
:103B300090F847212C490020FFF7DDFC1920FFF702
:103B4000ACFC274948731A20FFF7A7FC3D382449ED
:103B5000087305E0300603D50020214981F84701AC
:103B6000FF211120FFF786FCFF211220FFF782FCC6
:103B70002CE03E20FFF791FC06003F20FFF78DFC74
:103B80000700380702D5164805601FE0780715D5ED
:103B9000134845603220FFF780FC114981F8470146
:103BA0000F4890F8472110490020FFF7A4FC00209F
:103BB0000B49487300200A49087307E0700704D5D1
:103BC0000020074981F8470100E0FEE70020FFF7E9
:103BD000ADFC0348C169084800F068F8F1BD000079
:103BE000400000200048E80188010020E859000852
:103BF000A80200201C5900085400002010B5040041
:103C000000F07DFAE4B2002C05D0022C0AD006D3D5
:103C1000032C0BD00DE00020FFF788FC09E0FFF734
:103C2000EFFD06E00020FFF7C0FE02E00120FFF7F5
:103C3000BCFE00F06BFA10BD70B5082400254C4E98
:103C40002A0021003000FEF79FFD00F072FAFFF716
:103C5000C6FEFEF76DFD70BD80B500F0E0F902BD57
:103C600002001068002808D01068884203D1086854
:103C70001060012002E01268F3E70020704710B5E1
:103C8000040000F03CFA21003948FFF7E9FF002862
:103C900005D121003748FFF7E3FF002801D00120BC
:103CA00000E00020C0B200F031FA10BD70B5040091
:103CB0000D0000F024FA2000FFF7E1FFA5600020CE
:103CC00020602C4806003068002801D03668FAE7EA
:103CD000346000F01BFA70BDF8B504000D0016004A
:103CE00000F00DFA2000FFF7CAFF6560A660002013
:103CF00020601F4807003868002809D038684068ED
:103D0000401B012802DB3868206001E03F68F2E7D1
:103D10003C6000F0FBF9F1BD10B5002400F0EFF9B4
:103D200013484068002806D0114840680400206805
:103D30000F49486013E00E48006800280DD00C4879
:103D40000068406800F09BF9002806D00848006829
:103D5000040020680649086001E000F0E2F900F084
:103D6000D5F9002CD9D02000A1688847D5E70000FC
:103D7000CC020020D002002010B504002000C0B208
:103D800000F0ACFA012180B200F001F810BD4FF64E
:103D90007F72104050EAC11080B27047C0B250EA42
:103DA000012080B27047000038B5DFF8B00300682A
:103DB00050F00700DFF8A41308600024E4B2062CDA
:103DC00026D24FF43472DFF89803E4B22018417819
:103DD000DFF88C03E4B2205C4FF48063DFF8845397
:103DE00003FB005000F08CFA0022DFF87403E4B209
:103DF00020184178DFF86803E4B2205C4FF4806358
:103E0000DFF8605303FB005000F0C1FAA41CD5E7B3
:103E10000024E4B2062C1FD24FF4E072DFF848030E
:103E2000E4B220184178DFF84003E4B2205C4FF49C
:103E30008063DFF8305303FB005000F061FA282262
:103E4000DFF82403E4B220184178C748E4B2205CCC
:103E500000F0AAFAA41CDCE731BD10B50400E4B2FE
:103E6000012C04D0E4B2002C01D000F0A9F9E4B296
:103E7000E243D2B20D21BD4800F089FA2200D2B24D
:103E80000421B84800F083FA10BD10B504002200E8
:103E9000D2B20021B64800F07AFA10BD10B5040085
:103EA000E4B2002C02D0E4B2012C0CD14FF43472F5
:103EB0000221AC4800F024FA2200D2B20221A94823
:103EC00000F065FA05E04FF4E0720221A54800F029
:103ED00017FA10BD80B5A7480068800705D50220F5
:103EE000A44908600020FFF7E4FDA24800684005EF
:103EF00006D54FF480609F4908600120FFF7D9FD87
:103F00009C480068000506D54FF400609949086098
:103F10000220FFF7CEFD01BD80B5FFF7DBFF01BD3D
:103F200080B5FFF7D7FF01BD80B5FFF7D3FF01BD17
:103F300080B5FFF7CFFF01BD80B5FFF7CBFF01BD17
:103F400080B5FFF7C7FF01BD80B5FFF7C3FF01BD17
:103F500080B58948006850F480508749086040F275
:103F6000E54205217F4800F0CBF940F2E542062109
:103F70007C4800F0C5F940F2E5420721794800F09D
:103F8000BFF94FF451707D49088001BD0100C9B2ED
:103F90007B4801807B480088C007FBD578480088B3
:103FA000C0B270477848006850F480707649086065
:103FB0007648006850F4807074490860734800685F
:103FC0008005FBD56C48006850F004006A49086021
:103FD0006F48006850F004006D4908606D48006843
:103FE00050F004006B4908606A48006830F0040033
:103FF000684908604FF4804067490880702067492D
:1040000008705FF00070664908606648008850F0EC
:10401000010064490880012063490880704738B571
:1040200000F06DF86148446861480568614800889F
:10403000C00703D55E4800680500641C00F066F800
:10404000ADB255EA044032BD10B50400FFF7E7FFFA
:104050000100621A012A01DA002007E0101400288A
:1040600002D04FF6FF7001E0100080B210BD10B515
:1040700004002000FFF7E8FF0028FAD110BD38B592
:1040800004004C4800884FF6FB71084049490880FD
:104090002000FFF7D9FF050080B2052808DA414863
:1040A00000884FF6FB7108403E490880012012E06D
:1040B0003F480068ADB228183F4908603948008879
:1040C00050F00400374908803C48008850F0100048
:1040D0003A490880002032BD36480088C00704D520
:1040E00032484068401C31494860324800884007E7
:1040F00001D52C48008800202E490880704772B6F0
:104100002A480068401C2949086070472748006811
:10411000401E2649086025480068002800D162B684
:1041200070471948006850F001001749086030BF17
:10413000704770B5082400251C4E2A00210030006D
:10414000FEF722FBFFF7DBFFFFF72EFEFFF700FF76
:10415000FFF728FFFFF7DAFF70BD00001C380240B0
:10416000C859000800000240D05900080008024069
:104170000004024014040140203802400030014095
:104180000C300140083001400070004034380240DB
:104190002C380240143802400808014019E400E0BD
:1041A00000E100E00C08014000080140C4020020CA
:1041B000240801401008014038080140200801404F
:1041C00080B5FFF79CFFFFF7ACFFFEE70349C0B2E5
:1041D000415CFF2900D0401EC0B2704784590008DE
:1041E0000549C0B240184078FF2801D0012000E006
:1041F0000020C0B2704700BF8459000838B50400E1
:104200000D002800451EC0B2002805D02000C0B215
:10421000FFF7DCFF0400F4E72000C0B232BD00006D
:1042200080B54FF434720821244800F069F800206A
:1042300000F018F82248006850F4804020490860D7
:1042400040F2E72209211D4800F05AF840F215100B
:104250001C49088042F208001B4908801B4800F0F6
:1042600012F801BD10B504002200D2B20821134893
:1042700000F08DF810BD164909880906FBD5C0B2BB
:1042800014490880704710B504002078002804D035
:104290002078FFF7F0FF641CF7E710BD10B50400AD
:1042A0000D4850F82400FFF7EEFF0D20FFF7E3FF65
:1042B0000A20FFF7E0FF10BD0000000000000240F0
:1042C00020380240083801400C3801400C570008E3
:1042D0000038014004380140000000200249C0B20B
:1042E0004018407880B27047845900084FF69F729A
:1042F0001040C9B250EA411080B2704770470000C8
:10430000F0B4C9B24B00C9B2CC1010EB8404C9B2EE
:10431000CD1010EB85052D6A0F2611F00707FFB2AF
:10432000BF00BE40B54392B212F00F0611F007076E
:10433000FFB2BF00BE4035432562046803259D409F
:10434000AC43C2F30115ADB29D402C4304608468B8
:1043500003259D40AC43C2F38115ADB29D402C4373
:104360008460848801258D40AC43C2F30025ADB242
:104370008D402C438480C46803259D40AC43C2F328
:104380004125ADB29D402C43C460F0BC704710B4D1
:10439000838A01248C40A343D2B212F001048C40E2
:1043A0002343838210BC7047F0B5354B1B6853F034
:1043B0000103334C2360C9B211F003039B000F24A7
:1043C0009C40304DC9B28E1055F82650A543C0B25E
:1043D00010FA03F635432B4EC9B28F1046F827501A
:1043E00001258D40284E3668AE43274F3E60274E4C
:1043F0003668AE43254F3E60D2B212F03806F6B2B0
:10440000202E0AD0282E02D0302E0CD015E01E4EC1
:1044100036682E431C4F3E600FE01C4E36682E431C
:104420001A4F3E6009E0184E36682E43164F3E6024
:10443000164E36682E43154F3E60154E36682E4395
:10444000134F3E60C9B2052901DA8E1D05E0C9B2DD
:104450000A2901DA172600E028267027DFF834C081
:10446000F6B206F80C70012716F01F0C17FA0CF7BD
:10447000DFF824C0F6B25FEA661E4CF82E70F0BD7D
:104480002038024008000140080401400C040140AB
:104490000004014000E400E000E100E0A56363C621
:1044A000847C7CF8997777EE8D7B7BF60DF2F2FFBA
:1044B000BD6B6BD6B16F6FDE54C5C59150303060A7
:1044C00003010102A96767CE7D2B2B5619FEFEE77B
:1044D00062D7D7B5E6ABAB4D9A7676EC45CACA8FB4
:1044E0009D82821F40C9C989877D7DFA15FAFAEF3E
:1044F000EB5959B2C947478E0BF0F0FBECADAD411B
:1045000067D4D4B3FDA2A25FEAAFAF45BF9C9C23A2
:10451000F7A4A453967272E45BC0C09BC2B7B77590
:104520001CFDFDE1AE93933D6A26264C5A36366C4F
:10453000413F3F7E02F7F7F54FCCCC835C343468C3
:10454000F4A5A55134E5E5D108F1F1F9937171E2D3
:1045500073D8D8AB533131623F15152A0C040408C7
:1045600052C7C795652323465EC3C39D28181830DC
:10457000A19696370F05050AB59A9A2F0907070ED7
:10458000361212249B80801B3DE2E2DF26EBEBCD4E
:104590006927274ECDB2B27F9F7575EA1B090912B4
:1045A0009E83831D742C2C582E1A1A342D1B1B36F7
:1045B000B26E6EDCEE5A5AB4FBA0A05BF65252A467
:1045C0004D3B3B7661D6D6B7CEB3B37D7B2929521E
:1045D0003EE3E3DD712F2F5E97848413F55353A6DA
:1045E00068D1D1B9000000002CEDEDC16020204061
:1045F0001FFCFCE3C8B1B179ED5B5BB6BE6A6AD45F
:1046000046CBCB8DD9BEBE674B393972DE4A4A9450
:10461000D44C4C98E85858B04ACFCF856BD0D0BB1B
:104620002AEFEFC5E5AAAA4F16FBFBEDC54343866B
:10463000D74D4D9A5533336694858511CF45458ABC
:1046400010F9F9E906020204817F7FFEF05050A0C4
:10465000443C3C78BA9F9F25E3A8A84BF35151A254
:10466000FEA3A35DC04040808A8F8F05AD92923F2C
:10467000BC9D9D214838387004F5F5F1DFBCBC6362
:10468000C1B6B67775DADAAF632121423010102057
:104690001AFFFFE50EF3F3FD6DD2D2BF4CCDCD81F5
:1046A000140C0C18351313262FECECC3E15F5FBE1E
:1046B000A2979735CC4444883917172E57C4C49312
:1046C000F2A7A755827E7EFC473D3D7AAC6464C864
:1046D000E75D5DBA2B191932957373E6A06060C06F
:1046E00098818119D14F4F9E7FDCDCA36622224442
:1046F0007E2A2A54AB90903B8388880BCA46468C0E
:1047000029EEEEC7D3B8B86B3C14142879DEDEA7C7
:10471000E25E5EBC1D0B0B1676DBDBAD3BE0E0DB47
:10472000563232644E3A3A741E0A0A14DB494992F0
:104730000A06060C6C242448E45C5CB85DC2C29F87
:104740006ED3D3BDEFACAC43A66262C4A8919139DD
:10475000A495953137E4E4D38B7979F232E7E7D544
:1047600043C8C88B5937376EB76D6DDA8C8D8D01A4
:1047700064D5D5B1D24E4E9CE0A9A949B46C6CD891
:10478000FA5656AC07F4F4F325EAEACFAF6565CAEA
:104790008E7A7AF4E9AEAE4718080810D5BABA6F27
:1047A000887878F06F25254A722E2E5C241C1C38E0
:1047B000F1A6A657C7B4B47351C6C69723E8E8CB91
:1047C0007CDDDDA19C7474E8211F1F3EDD4B4B9600
:1047D000DCBDBD61868B8B0D858A8A0F907070E081
:1047E000423E3E7CC4B5B571AA6666CCD8484890B6
:1047F0000503030601F6F6F7120E0E1CA36161C253
:104800005F35356AF95757AED0B9B96991868617C1
:1048100058C1C199271D1D3AB99E9E2738E1E1D99B
:1048200013F8F8EBB398982B33111122BB6969D2B6
:1048300070D9D9A9898E8E07A7949433B69B9B2DE6
:10484000221E1E3C9287871520E9E9C949CECE87F2
:10485000FF5555AA782828507ADFDFA58F8C8C0366
:10486000F8A1A15980898909170D0D1ADABFBF6512
:1048700031E6E6D7C6424284B86868D0C341418277
:10488000B0999929772D2D5A110F0F1ECBB0B07BFF
:10489000FC5454A8D6BBBB6D3A16162C6363C6A550
:1048A0007C7CF8847777EE997B7BF68DF2F2FF0DB6
:1048B0006B6BD6BD6F6FDEB1C5C5915430306050A3
:1048C000010102036767CEA92B2B567DFEFEE71977
:1048D000D7D7B562ABAB4DE67676EC9ACACA8F45B0
:1048E00082821F9DC9C989407D7DFA87FAFAEF153A
:1048F0005959B2EB47478EC9F0F0FB0BADAD41EC17
:10490000D4D4B367A2A25FFDAFAF45EA9C9C23BF9E
:10491000A4A453F77272E496C0C09B5BB7B775C28C
:10492000FDFDE11C93933DAE26264C6A36366C5A4B
:104930003F3F7E41F7F7F502CCCC834F3434685CBF
:10494000A5A551F4E5E5D134F1F1F9087171E293CF
:10495000D8D8AB733131625315152A3F0404080CC3
:10496000C7C7955223234665C3C39D5E18183028D8
:10497000969637A105050A0F9A9A2FB507070E09D3
:104980001212243680801B9BE2E2DF3DEBEBCD264A
:1049900027274E69B2B27FCD7575EA9F0909121BB0
:1049A00083831D9E2C2C58741A1A342E1B1B362DF3
:1049B0006E6EDCB25A5AB4EEA0A05BFB5252A4F663
:1049C0003B3B764DD6D6B761B3B37DCE2929527B1A
:1049D000E3E3DD3E2F2F5E71848413975353A6F5D6
:1049E000D1D1B96800000000EDEDC12C202040605D
:1049F000FCFCE31FB1B179C85B5BB6ED6A6AD4BE5B
:104A0000CBCB8D46BEBE67D93939724B4A4A94DE4C
:104A10004C4C98D45858B0E8CFCF854AD0D0BB6B17
:104A2000EFEFC52AAAAA4FE5FBFBED16434386C567
:104A30004D4D9AD7333366558585119445458ACFB8
:104A4000F9F9E910020204067F7FFE815050A0F0C0
:104A50003C3C78449F9F25BAA8A84BE35151A2F350
:104A6000A3A35DFE404080C08F8F058A92923FAD28
:104A70009D9D21BC38387048F5F5F104BCBC63DF5E
:104A8000B6B677C1DADAAF75212142631010203053
:104A9000FFFFE51AF3F3FD0ED2D2BF6DCDCD814CF1
:104AA0000C0C181413132635ECECC32F5F5FBEE11A
:104AB000979735A2444488CC17172E39C4C493570E
:104AC000A7A755F27E7EFC823D3D7A476464C8AC60
:104AD0005D5DBAE71919322B7373E6956060C0A06B
:104AE000818119984F4F9ED1DCDCA37F222244663E
:104AF0002A2A547E90903BAB88880B8346468CCA0A
:104B0000EEEEC729B8B86BD31414283CDEDEA779C3
:104B10005E5EBCE20B0B161DDBDBAD76E0E0DB3B43
:104B2000323264563A3A744E0A0A141E494992DBEC
:104B300006060C0A2424486C5C5CB8E4C2C29F5D83
:104B4000D3D3BD6EACAC43EF6262C4A6919139A8D9
:104B5000959531A4E4E4D3377979F28BE7E7D53240
:104B6000C8C88B4337376E596D6DDAB78D8D018CA0
:104B7000D5D5B1644E4E9CD2A9A949E06C6CD8B48D
:104B80005656ACFAF4F4F307EAEACF256565CAAFE6
:104B90007A7AF48EAEAE47E908081018BABA6FD523
:104BA0007878F08825254A6F2E2E5C721C1C3824DC
:104BB000A6A657F1B4B473C7C6C69751E8E8CB238D
:104BC000DDDDA17C7474E89C1F1F3E214B4B96DDFC
:104BD000BDBD61DC8B8B0D868A8A0F857070E0907D
:104BE0003E3E7C42B5B571C46666CCAA484890D8B2
:104BF00003030605F6F6F7010E0E1C126161C2A34F
:104C000035356A5F5757AEF9B9B969D086861791BD
:104C1000C1C199581D1D3A279E9E27B9E1E1D93897
:104C2000F8F8EB1398982BB3111122336969D2BBB2
:104C3000D9D9A9708E8E0789949433A79B9B2DB6E2
:104C40001E1E3C2287871592E9E9C920CECE8749EE
:104C50005555AAFF28285078DFDFA57A8C8C038F62
:104C6000A1A159F8898909800D0D1A17BFBF65DA0E
:104C7000E6E6D731424284C66868D0B8414182C373
:104C8000999929B02D2D5A770F0F1E11B0B07BCBFB
:104C90005454A8FCBBBB6DD616162C3A63C6A5634C
:104CA0007CF8847C77EE99777BF68D7BF2FF0DF2B2
:104CB0006BD6BD6B6FDEB16FC59154C5306050309F
:104CC0000102030167CEA9672B567D2BFEE719FE73
:104CD000D7B562D7AB4DE6AB76EC9A76CA8F45CAAC
:104CE000821F9D82C98940C97DFA877DFAEF15FA36
:104CF00059B2EB59478EC947F0FB0BF0AD41ECAD13
:104D0000D4B367D4A25FFDA2AF45EAAF9C23BF9C9A
:104D1000A453F7A472E49672C09B5BC0B775C2B788
:104D2000FDE11CFD933DAE93264C6A26366C5A3647
:104D30003F7E413FF7F502F7CC834FCC34685C34BB
:104D4000A551F4A5E5D134E5F1F908F171E29371CB
:104D5000D8AB73D831625331152A3F1504080C04BF
:104D6000C79552C723466523C39D5EC318302818D4
:104D70009637A196050A0F059A2FB59A070E0907CF
:104D800012243612801B9B80E2DF3DE2EBCD26EB46
:104D9000274E6927B27FCDB275EA9F7509121B09AC
:104DA000831D9E832C58742C1A342E1A1B362D1BEF
:104DB0006EDCB26E5AB4EE5AA05BFBA052A4F6525F
:104DC0003B764D3BD6B761D6B37DCEB329527B2916
:104DD000E3DD3EE32F5E712F8413978453A6F553D2
:104DE000D1B968D100000000EDC12CED2040602059
:104DF000FCE31FFCB179C8B15BB6ED5B6AD4BE6A57
:104E0000CB8D46CBBE67D9BE39724B394A94DE4A48
:104E10004C98D44C58B0E858CF854ACFD0BB6BD013
:104E2000EFC52AEFAA4FE5AAFBED16FB4386C54363
:104E30004D9AD74D3366553385119485458ACF45B4
:104E4000F9E910F9020406027FFE817F50A0F050BC
:104E50003C78443C9F25BA9FA84BE3A851A2F3514C
:104E6000A35DFEA34080C0408F058A8F923FAD9224
:104E70009D21BC9D38704838F5F104F5BC63DFBC5A
:104E8000B677C1B6DAAF75DA21426321102030104F
:104E9000FFE51AFFF3FD0EF3D2BF6DD2CD814CCDED
:104EA0000C18140C13263513ECC32FEC5FBEE15F16
:104EB0009735A2974488CC44172E3917C49357C40A
:104EC000A755F2A77EFC827E3D7A473D64C8AC645C
:104ED0005DBAE75D19322B1973E6957360C0A06067
:104EE000811998814F9ED14FDCA37FDC224466223A
:104EF0002A547E2A903BAB90880B8388468CCA4606
:104F0000EEC729EEB86BD3B814283C14DEA779DEBF
:104F10005EBCE25E0B161D0BDBAD76DBE0DB3BE03F
:104F2000326456323A744E3A0A141E0A4992DB49E8
:104F3000060C0A0624486C245CB8E45CC29F5DC27F
:104F4000D3BD6ED3AC43EFAC62C4A6629139A891D5
:104F50009531A495E4D337E479F28B79E7D532E73C
:104F6000C88B43C8376E59376DDAB76D8D018C8D9C
:104F7000D5B164D54E9CD24EA949E0A96CD8B46C89
:104F800056ACFA56F4F307F4EACF25EA65CAAF65E2
:104F90007AF48E7AAE47E9AE08101808BA6FD5BA1F
:104FA00078F08878254A6F252E5C722E1C38241CD8
:104FB000A657F1A6B473C7B4C69751C6E8CB23E889
:104FC000DDA17CDD74E89C741F3E211F4B96DD4BF8
:104FD000BD61DCBD8B0D868B8A0F858A70E0907079
:104FE0003E7C423EB571C4B566CCAA664890D848AE
:104FF00003060503F6F701F60E1C120E61C2A3614B
:10500000356A5F3557AEF957B969D0B986179186B9
:10501000C19958C11D3A271D9E27B99EE1D938E193
:10502000F8EB13F8982BB3981122331169D2BB69AE
:10503000D9A970D98E07898E9433A7949B2DB69BDE
:105040001E3C221E87159287E9C920E9CE8749CEEA
:1050500055AAFF5528507828DFA57ADF8C038F8C5E
:10506000A159F8A1890980890D1A170DBF65DABF0A
:10507000E6D731E64284C64268D0B8684182C3416F
:105080009929B0992D5A772D0F1E110FB07BCBB0F7
:1050900054A8FC54BB6DD6BB162C3A16C6A5636348
:1050A000F8847C7CEE997777F68D7B7BFF0DF2F2AE
:1050B000D6BD6B6BDEB16F6F9154C5C5605030309B
:1050C00002030101CEA96767567D2B2BE719FEFE6F
:1050D000B562D7D74DE6ABABEC9A76768F45CACAA8
:1050E0001F9D82828940C9C9FA877D7DEF15FAFA32
:1050F000B2EB59598EC94747FB0BF0F041ECADAD0F
:10510000B367D4D45FFDA2A245EAAFAF23BF9C9C96
:1051100053F7A4A4E49672729B5BC0C075C2B7B784
:10512000E11CFDFD3DAE93934C6A26266C5A363643
:105130007E413F3FF502F7F7834FCCCC685C3434B7
:1051400051F4A5A5D134E5E5F908F1F1E2937171C7
:10515000AB73D8D8625331312A3F1515080C0404BB
:105160009552C7C7466523239D5EC3C330281818D0
:1051700037A196960A0F05052FB59A9A0E090707CB
:10518000243612121B9B8080DF3DE2E2CD26EBEB42
:105190004E6927277FCDB2B2EA9F7575121B0909A8
:1051A0001D9E838358742C2C342E1A1A362D1B1BEB
:1051B000DCB26E6EB4EE5A5A5BFBA0A0A4F652525B
:1051C000764D3B3BB761D6D67DCEB3B3527B292912
:1051D000DD3EE3E35E712F2F13978484A6F55353CE
:1051E000B968D1D100000000C12CEDED4060202055
:1051F000E31FFCFC79C8B1B1B6ED5B5BD4BE6A6A53
:105200008D46CBCB67D9BEBE724B393994DE4A4A44
:1052100098D44C4CB0E85858854ACFCFBB6BD0D00F
:10522000C52AEFEF4FE5AAAAED16FBFB86C543435F
:105230009AD74D4D66553333119485858ACF4545B0
:10524000E910F9F904060202FE817F7FA0F05050B8
:1052500078443C3C25BA9F9F4BE3A8A8A2F3515148
:105260005DFEA3A380C04040058A8F8F3FAD929220
:1052700021BC9D9D70483838F104F5F563DFBCBC56
:1052800077C1B6B6AF75DADA42632121203010104B
:10529000E51AFFFFFD0EF3F3BF6DD2D2814CCDCDE9
:1052A00018140C0C26351313C32FECECBEE15F5F12
:1052B00035A2979788CC44442E3917179357C4C406
:1052C00055F2A7A7FC827E7E7A473D3DC8AC646458
:1052D000BAE75D5D322B1919E6957373C0A0606063
:1052E000199881819ED14F4FA37FDCDC4466222236
:1052F000547E2A2A3BAB90900B8388888CCA464602
:10530000C729EEEE6BD3B8B8283C1414A779DEDEBB
:10531000BCE25E5E161D0B0BAD76DBDBDB3BE0E03B
:1053200064563232744E3A3A141E0A0A92DB4949E4
:105330000C0A0606486C2424B8E45C5C9F5DC2C27B
:10534000BD6ED3D343EFACACC4A6626239A89191D1
:1053500031A49595D337E4E4F28B7979D532E7E738
:105360008B43C8C86E593737DAB76D6D018C8D8D98
:10537000B164D5D59CD24E4E49E0A9A9D8B46C6C85
:10538000ACFA5656F307F4F4CF25EAEACAAF6565DE
:10539000F48E7A7A47E9AEAE101808086FD5BABA1B
:1053A000F08878784A6F25255C722E2E38241C1CD4
:1053B00057F1A6A673C7B4B49751C6C6CB23E8E885
:1053C000A17CDDDDE89C74743E211F1F96DD4B4BF4
:1053D00061DCBDBD0D868B8B0F858A8AE090707075
:1053E0007C423E3E71C4B5B5CCAA666690D84848AA
:1053F00006050303F701F6F61C120E0EC2A3616147
:105400006A5F3535AEF9575769D0B9B917918686B5
:105410009958C1C13A271D1D27B99E9ED938E1E18F
:10542000EB13F8F82BB3989822331111D2BB6969AA
:10543000A970D9D907898E8E33A794942DB69B9BDA
:105440003C221E1E15928787C920E9E98749CECEE6
:10545000AAFF555550782828A57ADFDF038F8C8C5A
:1054600059F8A1A1098089891A170D0D65DABFBF06
:10547000D731E6E684C64242D0B8686882C341416B
:1054800029B099995A772D2D1E110F0F7BCBB0B0F3
:10549000A8FC54546DD6BBBB2C3A161680B55148A7
:1054A000006850F480704F4908604F4800684F49C9
:1054B00008404D4908604B4800684D49084049493B
:1054C00008604848006830F4802046490860464833
:1054D000006830F47D0044490860002045490860B8
:1054E00000F005F85FF000604349086001BD82B03C
:1054F00000200190002000903A48006850F0010020
:10550000384908603748006810F0020000900098A1
:10551000002803D10198B0F5A04FF3D131480068BD
:10552000800702D50120009001E000200090009843
:10553000012853D13148006850F004002F49086019
:105540002E48006850F002002C4908602B48006883
:1055500050F00100294908602948006850F0805047
:10556000274908604FF40060264908602648006813
:10557000C006FBD41C4800681B4908601A48006834
:1055800019490860184800681749086016480068FB
:1055900030F47D00144908601348006850F4080096
:1055A000114908600F48006850F080700D4908608C
:1055B0000C4800688001FBD50B480068800880001B
:1055C000094908600848006850F00300064908606F
:1055D0000548006810F00C000C28F9D102B07047A3
:1055E0000000000000380240083802400CC0FF886C
:1055F000FEFFFEEE0C38024008ED00E0003C0240E9
:10560000243802400070004004700040637C777BC7
:10561000F26B6FC53001672BFED7AB76CA82C97DAE
:10562000FA5947F0ADD4A2AF9CA472C0B7FD93263F
:10563000363FF7CC34A5E5F171D8311504C723C343
:105640001896059A071280E2EB27B27509832C1A87
:105650001B6E5AA0523BD6B329E32F8453D100EDE1
:1056600020FCB15B6ACBBE394A4C58CFD0EFAAFBC5
:10567000434D338545F9027F503C9FA851A3408F8D
:10568000929D38F5BCB6DA2110FFF3D2CD0C13ECA5
:105690005F974417C4A77E3D645D197360814FDC3A
:1056A000222A908846EEB814DE5E0BDBE0323A0A1E
:1056B0004906245CC2D3AC629195E479E7C8376DA2
:1056C0008DD54EA96C56F4EA657AAE08BA78252EC7
:1056D0001CA6B4C6E8DD741F4BBD8B8A703EB56650
:1056E0004803F60E613557B986C11D9EE1F8981141
:1056F00069D98E949B1E87E9CE5528DF8CA1890D30
:10570000BFE6426841992D0FB054BB160D0A3D3DCE
:105710003D3D3D3D3D3D3D3D3D3D3D3D20444542C2
:1057200055472053544152544544203D3D3D3D3D55
:105730003D3D3D3D3D3D3D3D3D0D0A00A027BE3375
:10574000A027BE33E034C133E034C1332042C43338
:105750002042C433A127BE33E134C1332142C433D4
:105760005099C93390A6CC330AE6D33310B450F81D
:10577000041B79B10268436812180830DC0744BF83
:10578000A9F10104E31852F8044B43F8044B091F34
:10579000F9D1ECE710BC70470000000100000002E6
:1057A00000000004000000080000001000000020BD
:1057B00000000040000000800000001B00000036D8
:1057C00010B5074979441831064C7C44163404E07E
:1057D0000A68081D511888470146A142F8D110BD3A
:1057E000080000002800000007D0FFFF980200001A
:1057F000400000200000000075FFFFFF4000000097
:10580000A4020000000000200000000019020000B7
:105810000C01000086000000430000002200000090
:1058200011000000080000000300000000F00BF869
:10583000002801D0FFF7C4FF0020C046C046FDF796
:105840001EFD00F002F80120704700F001B80000D2
:105850000746384600F002F8FBE7000080B5C04676
:10586000C046024A11001820ABBEFBE7260002002A
:105870002020200E11140C0F12090C0F06090C0326
:1058800006090003060000004E6F6E20456D70741F
:1058900079204D6573736167650000005343414E85
:1058A0005F54494D454F5554000000004245414367
:1058B0004F4E5F464F554E44000000004245414365
:1058C0004F4E5F4D4953534544000000424541430C
:1058D0004F4E5F545241434B4544000052454A4F9E
:1058E000494E5F4641494C4544000000456D707487
:1058F00079204D657373616765000000140E0B0815
:10590000050200000000000000000000AB89EFCDA0
:105910002301674554761032DCFE98BA000000007F
:1059200036006A00E600BE01FE0300000148804721
:10593000014800479D5400089D5900084A4F494EB0
:105940005F4641494C4544005458434F4D504C45E7
:10595000544500004C4F53545F5453594E4300007C
:105960005258434F4D504C45544500004C494E4B06
:105970005F444541440000004C494E4B5F414C4957
:1059800056450000FF0605040302010900FF000060
:10599000000000010001000100000000C046C046F8
:1059A000C046C046FFF742FF4A4F494E494E4700A6
:1059B0004A4F494E45440000524655310000000010
:1059C000524553455400000001000004020D000040
:1059D0000101010A010B00000200000000EEFFC0FF
:1059E0000123456789ABCDEFC0400000FFF7FEBF44
:1059F000FFF7FEBFFFF7FEBFFFF7FEBFFFF7FEBFDB
:105A0000FFF7FEBFFFF7FEBFFFF7FEBFFFF7FEBFCA
:105A1000FFF7FEBFFFF7FEBFFFF7FEBFFFF7FEBFBA
:105A2000FFF7FEBFFFF7FEBFFFF7FEBFFFF7FEBFAA
:105A3000FFF7FEBFFFF7FEBFFFF7FEBFFFF7FEBF9A
:105A4000FFF7FEBFFFF7FEBFFFF7FEBFFFF7FEBF8A
:105A5000FFF7FEBFFFF7FEBFFFF7FEBFFFF7FEBF7A
:105A6000FFF7FEBFFFF7FEBFFFF7FEBFFFF7FEBF6A
:105A7000FFF7FEBFFFF7FEBFFFF7FEBFFFF7FEBF5A
:105A8000FFF7FEBFFFF7FEBFFFF7FEBFFFF7FEBF4A
:105A9000FFF7FEBFFFF7FEBFFFF7FEBFFFF7FEBF3A
:105AA000FFF7FEBF000000009C580008AC5800083B
:105AB000BC580008CC580008A8590008B059000884
:105AC000B85900083C590008DC580008485900083B
:105AD00054590008C0590008605900086C59000862
