:020000040800F2
:10000000E00A002061550008315600083556000806
:10001000395600083D56000841560008000000000F
:10002000000000000000000000000000455600082D
:1000300049560008000000004D56000851560008BF
:1000400055560008595600085D56000861560008CC
:100050006556000869560008F93A0008013B000897
:10006000093B0008113B0008193B00086D560008C9
:100070007156000875560008795600087D5600082C
:100080008156000885560008895600088D560008DC
:10009000915600089556000899560008213B000823
:1000A0009D560008B93C0008A1560008A556000856
:1000B000A9560008AD560008B1560008B55600080C
:1000C000B9560008BD560008C1560008C5560008BC
:1000D000C9560008CD560008D1560008D55600086C
:1000E000293B0008D9560008DD560008E1560008F3
:1000F000E55600080178407851EA002080B2704748
:100100000178427851EA0221827851EA0241C078AE
:1001100051EA00607047C178827851EA0221427842
:1001200051EA0241007851EA00607047017089B2DB
:100130000A0A4270704701700A0A42700A0C827003
:100140000A0EC2707047C1700A0A82700A0C4270AF
:100150000A0E0270704770B40200002041F22103C1
:1001600000248C4210D2A55C90EA05200825EDB24F
:10017000002D07D0060402D593EA400000E04000BD
:100180006D1EF4E7641CECE780B270BC70472DE98B
:10019000F04704000D0016001F005FF010085FF02C
:1001A0000009DFF8B8AA4A464146504601F0ECFE85
:1001B0004920DFF8A81A0870002E04D00120DFF8CB
:1001C0009C1A487103E00020DFF8901A4871DFF8AC
:1001D0008C0AC7732100DFF8880AFFF7ACFF2900FB
:1001E000DFF8800AFFF7A7FFBDE8F0872DE9F84F99
:1001F00004000D0016001F00DDF82880DDF82C90AB
:100200004B463A0031002800FFF7C1FF5FF0100AAB
:10021000DFF854BA52462100584601F0F9FE4A462A
:1002200092B24146022001F093FF834619EB080089
:10023000FFF771FF834501D1012000E00020C0B22B
:10024000BDE8F28F38B504000D00DFF81C0A02F09B
:1002500007FC2A0092B221000A2001F079FF010078
:100260002819FFF770FF31BD2DE9F14F0C00150083
:100270001E000A9FDDF82C80B8F1010F3ADB5FF019
:1002800010095FF0000ADFF8D4B9524649465846D3
:1002900001F07AFE0120DFF8C419C873DFF8BC0949
:1002A000C07BDFF8B8190870002E04D00120DFF8F9
:1002B000AC19487103E00020DFF8A0194871210053
:1002C000DFF89C09FFF737FF2900DFF89809FFF7EF
:1002D00032FF5FF01009DDF800A0DFF88CB94A4664
:1002E0005146584601F094FE424692B2390004202D
:1002F00001F02EFFBDE8F18F38B50400200080B278
:1003000002F056FD0500200080B202F054FDDFF837
:100310005C19EDB2032202FB0511405C8D3832BD41
:100320002DE9F04704000F00200080B202F043FDE9
:100330000500200080B202F03BFD0600F6B2002E60
:100340000AD1FFB217F10B005FF4802148434CF251
:10035000503190FBF1F062E0B01DC0B25FEA80085E
:10036000F6B2052E01DB082000E00020B8EB000902
:10037000200080B202F023FD002802D05FF0000AC6
:1003800001E05FF0100A200080B202F01CFD00289E
:1003900001D0142000E00020FFB25FFA88F8D8EB0B
:1003A000C7011AEB01011C31B1EB000ABAF1010FD0
:1003B00013DB5FFA89F919EB0A00401E5FFA89F92D
:1003C00090FBF9FA200080B202F001FD401D00FB15
:1003D0000AF082461AF1080A01E0082082465FEA24
:1003E0008A0010F1310A701C401B804643F6095107
:1003F0005FFA88F8B8F1050F06DBB8F104020800CF
:1004000001001141042080461AFA08F04FF400421E
:10041000022391FBF3F302FB003090FBF1F0BDE807
:10042000F08770B40200D2B2002A0AD1DFF8404847
:10043000B4F9B4402000DFF83848B4F9B6402300DE
:100440000FE0DFF82C48B4F9B440D2B25443E411C1
:100450002000DFF81C48B4F9B640D2B25443E4118E
:1004600023000524DFF80858B5F9B850DFF8006814
:1004700096F8316106FB0533DFF8F857C9B255F835
:10048000215093FBF5F56D1DDFF8E4673574E4B298
:10049000083CDFF8E057C9B255F8211001FB040011
:1004A00070BC704770B504000D00EDB2002D18D07F
:1004B0000020DFF8BC17A1F8B4000020DFF8B01767
:1004C000A1F8B8000020DFF8A81781F83101DFF8A3
:1004D000A00790F8960150F00C00DFF8941781F80F
:1004E0009601DFF89007C668E4B24FF4004240F28C
:1004F000E7300021E2FB04014FF47A72002302F09E
:100500006BFC90FBF6F0401DDFF8641781F8890161
:10051000DFF85C07D0F8900110F58000DFF8501785
:1005200091F88911083906FB1100DFF84417C1F86A
:100530008C0170BD2DE9F84F04005FF010095FF0E9
:100540000008DFF8245742464946280001F01CFD08
:1005500008250026DFF8207732002900380001F056
:1005600013FDDFF80C07D0F89811DFF81007FFF73C
:10057000E2FDDFF8FC06D0F81411DFF80407FFF7FE
:10058000DAFD1022DFF8F416002001F0E1FD94F806
:1005900001A0DFF8E806FFF7ADFD40F6FF71DAF1E4
:1005A00007020B00134113EA0007DFF8C406D0F876
:1005B00090B11E2000FB07F04FF4004181FB0001C9
:1005C0004FF47A72002302F007FC10EB0B00DFF807
:1005D000B416081860600020A0702178012010FA7D
:1005E0000AF0801CC0B2FFF71CFF6168081AA06007
:1005F000DFF87C06007CE070BDE8F18FF8B5040000
:100600000D00A068401B002801D4012028E0A0783C
:100610000600F6B2802E01DB002021E0012094F9D3
:10062000011010FA01F7BE19A6703000C0B2802880
:1006300001DB002014E02178B819801CC0B2FFF75C
:10064000F0FE6168F6B2DFF8382C02FB06F211EB1F
:10065000E211081AA060DFF81806007CE070D0E70D
:10066000F2BD38B5040002F056FF0500EDB202F00D
:1006700052FF50EA052189B20800B0F5004F07DDAE
:1006800089B24FF4004291FBF2F303FB12131800FE
:10069000E4B2002C0AD00A00D2B2E4B292FBF4F326
:1006A00004FB13224FF4004303FB020032BD38B5B4
:1006B00004000D002800C0B2FFF7D3FF00190400AA
:1006C000DFF8AC0590F8A300002806D0DFF8A005FD
:1006D000D0F8A400201A01280DDBDFF89405C0F83B
:1006E000A440DFF88C05B0F8AC0050F48070DFF85F
:1006F0008015A1F8AC0031BDDFF8742582F8B01088
:10070000704710B452B212F1800F03D0DFF8603599
:1007100083F8AF20DFF8583593F8B030C9B28B4278
:100720000DD0DFF84C3583F8B010DFF84435B3F85E
:10073000AC3053F40063DFF83845A4F8AC3010BC9B
:1007400070472DE9F84F040040250026DFF8687C4B
:1007500032002900380001F017FC20275FF0000864
:10076000DFF86C9C42463900484601F00DFC5FF012
:1007700020095FF0000ADFF870BC5246494658462F
:1007800001F002FC3F20DFF8E814A1F8A000E4B279
:10079000002C01D0002500E006250020C0B206286C
:1007A00015DADFF8481CEDB251F82510DFF8C02447
:1007B000C0B212EB800211643F21DFF8B424C0B252
:1007C00012EB4002A2F88010401C6D1CE6E7E4B278
:1007D000002C09D13F20DFF89814A1F88A00FF20EF
:1007E000DFF88C14A1F882004FF47A70DFF88014DF
:1007F00008840E20DFF8781481F8220002F08BFEC6
:10080000102190FBF1F202FB1102DFF8640480F882
:1008100023206420DFF8581408850E20DFF85014D8
:1008200081F82A0002F077FE102190FBF1F202FB22
:100830001102DFF83C0480F82B200A20DFF8301486
:1008400008861B20DFF8281481F8320002F063FECE
:10085000102190FBF1F202FB1102DFF8140480F882
:100860002B2002F045FFDFF808144863DFF800147E
:10087000C862DFF8FC134862BDE8F18F30B40400B1
:10088000E4B2102C01DB00204BE05BB213F1010F4E
:100890001ED1DFF8600C814206D3DFF85C0C814288
:1008A00002D251F002011DE0DFF8500C814203D367
:1008B000DFF84C0C814207D3DFF8480C814206D3A5
:1008C000DFF8440C814202D251F001010AE009E054
:1008D0005BB2042B01DB002023E0880880005BB2C0
:1008E00053EA0001DFF88803E4B210EB84000164EE
:1008F00092B2002A01D13F2000E01000DFF87053CF
:10090000E4B215EB4405A5F88000DFF86403B0F805
:10091000A0000125A5402843DFF85453A5F8A00006
:10092000012030BC704710B50400601EFFF7E8FBE3
:10093000000A64214843DFF8781C884205D3DFF8B9
:10094000C81B884201D20021080010BD10B402006B
:10095000D2B2002A0AD189B2002907D0C448B0F81F
:10096000A000C0430B009BB2034201D0002019E05D
:100970000020C0B2102811DA012383400C00A4B279
:100980001C4209D0BA4BC0B213EB80031B6C002B86
:1009900002D1012383409943401CEAE7B448A0F800
:1009A000A010012010BC704738B50400B048B04911
:1009B00091F8A21010EB8100056CAD4890F847113A
:1009C000AB48C089FFF7ACFCA94915F0030211EB55
:1009D000C2012031AA089200A54B9A608A78A44BE4
:1009E0009A740A8802FB00424A60A14A92F8A32046
:1009F000002A08D09E4A92F9A32010FA02F2121996
:100A00009B4BC3F8A42031BD01009948406B0522DF
:100A1000974B83F8A220704780B50020944981F855
:100A200047019348924991F8881110EB8100006CBE
:100A3000800880008E498860032002F0E9FE0121D1
:100A400080B202F0F0FE112180B202F0F3FE88497C
:100A5000C88101BD80B5DFF8300C02F059FF02F00B
:100A60005AFD062190FBF1F201FB1200804981F84A
:100A7000A2000E207E4981F8AF0005210020FFF77B
:100A80003BFE0120FFF75DFE7948B0F8AC000005A1
:100A900001D503F085F90820FFF7E3FD7449496AA1
:100AA00040187349086001BD10B5040001F04CF80E
:100AB00010BD10B504002000C0B202F015F901F01D
:100AC00043F810BD10B5040001F0A4F900F0E4FDF6
:100AD0000C20FFF7EEFF10BD00206549C1F81C0196
:100AE0006348D0F81C016249C1F818010020604930
:100AF00081F8B20000205E4981F825015C4981F847
:100B000024015B4981F82201594981F82001002024
:100B1000574981F82801564981F82901544981F83B
:100B20003001534981F827010020514981F83301F0
:100B300000204F4981F8AE007FF00B004C4981F84E
:100B4000210100204A4981F82A01DFF8F00B4849C9
:100B5000C1F82C010520464981F88801DFF8DC0B3B
:100B60004349C1F840010320414981F834017047ED
:100B700070B53F4890F84701112801D003F010F9F3
:100B80003E4C07212000FFF7E6FAE179C0B281422E
:100B900001D000205FE02000FFF7B2FA05022D0A25
:100BA0003348D0F8A800854202D05FF0FF3052E011
:100BB0002F4890F8960110F0FC002D4981F896011D
:100BC0002B48407B2A4981F895012948007B284918
:100BD00081F8940126484068DFF8641B081824490E
:100BE000C1F89001E01CFFF78BFA2149C1F8980188
:100BF0001F4890F8960150F001001D4981F89601B8
:100C000014F10F00FFF776FA06000F212000FFF71E
:100C1000A2FAB6B2864201D001201CE014F108000D
:100C2000FFF76EFA00121249C1F8A00114F10B008F
:100C3000FFF766FA00120E49C1F8A401207A0C49A8
:100C400081F89C010A4890F8960150F0020008498A
:100C500081F89601022070BD000000009C02002077
:100C6000A2020020A6020020EC01002090540008FF
:100C700044000020D8530008940100208C0100207B
:100C8000900100205C0F01002DE9F04F8DB0DFF8DE
:100C9000608C98F800008DF809009DF8090010F0AC
:100CA000E0008DF80800DFF84C0C90F8470109903F
:100CB00009980C280CDB9DF809000321084207D194
:100CC0009DF8080060280AD09DF80800A02806D0EA
:100CD0000020DFF8201C81F847010020AEE298F8E0
:100CE0000500069018F10100FFF70AFA0B9018F1C1
:100CF0000600FFF7FFF90400069810F00F000890B7
:100D00000698C0F3401010F001000A90089810F106
:100D100008050998001F03900B98DFF8D81BD1F83D
:100D200014118842D4D10398A842D1DB5FF0FF3080
:100D30000490002007900398854203DA15F8080014
:100D400004906D1CDFF8AC0BD0F81801DFF8A41B81
:100D5000D1F81811611A89B20C1803980190CDF8D6
:100D6000008001232200DFF88C0BD0F81411DFF88B
:100D7000880BFFF73BFA0028AAD0DFF8780BD0F8F1
:100D8000180184421AD2DFF86C0BD0F81801A04287
:100D90009EDBDFF8600BD0F81801401E844209D1B9
:100DA000DFF8500B90F82001002803D09DF80800D0
:100DB000A02800D08CE70120079013E0601CDFF82A
:100DC000341BC1F818019DF80800A02805D1202087
:100DD000DFF8201B81F8200104E00020DFF8141B5D
:100DE00081F82001DFF80C0B90F82001002802D1D7
:100DF0000698C00609D5DFF8FC0AB0F8AC0050F040
:100E00001000DFF8F01AA1F8AC000020DFF8E41AB7
:100E100081F8B200DFF8DC0A90F8B200DFF8D41AEB
:100E200081F82201DFF8CC0A90F9210110F1800F3E
:100E300005D07FF00B00DFF8BC1A81F82101DFF844
:100E4000B40A90F90C00B0F14006DFF8A80AC08996
:100E5000FFF752FA301A05900598002805D50020B2
:100E6000DFF8901A81F823010DE00598FF2805DBD3
:100E7000FE20DFF8801A81F8230104E00598DFF8EE
:100E8000741A81F8230118F1080600270898874290
:100E900080F27381B85D022812D0032812D0042892
:100EA00000F0B280052874D006286BD0072800F027
:100EB000D080112800F00881122800F018815CE130
:100EC000FF1CE3E7B81990F80190B819801CFFF7F0
:100ED00011F98246B819007910F0F0008DF8010080
:100EE000B819007910F00F008DF800007F1D8720E1
:100EF000DFF8001A81F82401514689B29DF80100FB
:100F0000FFF724FD002809D1DFF8E80990F8240153
:100F100010F0FE00DFF8DC1981F824015FFA89F98E
:100F20005FEA191B5846C0B202F040FF002809D101
:100F3000DFF8C00990F8240110F0FD00DFF8B419C3
:100F400081F82401DFF8AC0990F8240110F07F004B
:100F5000072811D19DF80000DFF8981981F8AE003C
:100F6000DFF8D80B5FFA89F919F00F010A565946D4
:100F7000C9B20420FFF7C5FB0120DFF8781981F81A
:100F8000220183E70120DFF86C1981F825017F1C1D
:100F90007CE7B819407810F00F09B819801CFFF7EA
:100FA000C2FC82467F1D8020DFF8481981F830019D
:100FB0004846C0B202F0FAFE002809D0DFF8340932
:100FC00090F8300150F00200DFF8281981F8300164
:100FD000BAF1000F09D0DFF81C0990F8300150F089
:100FE0000100DFF8101981F83001DFF8080990F8E6
:100FF0003001832807D1DFF8FC0880F82A91DFF858
:10100000F408C0F82CA141E7B81990F80190BF1C72
:101010005FFA89F9B9F1FF0F09D1DFF8D808B0F804
:10102000AC0050F04000DFF8CC18A1F8AC0019F08B
:101030000F00DFF8C01881F8A30002F059FBDFF8B9
:10104000B418C1F8A4000120DFF8A81881F828011D
:101050001CE7B81990F80190B819801CFFF763FCE1
:101060008246B81990F805B08020DFF8881881F81A
:101070002901BAF1000F25D05FF0FF334FF6FF7062
:101080001BF00F0188404FF6FF715FFA8BFB5FEAA0
:101090001B12D2F10F028C465CFA02FC1CEA000221
:1010A00092B251464846C0B2FFF7E8FB002809D08B
:1010B000DFF8400890F8290150F00300DFF83418F9
:1010C00081F82901BF1DE1E6B819401CFFF72BFC90
:1010D0003F1D8021002805D051F00101DFF81428C0
:1010E000C2F84001DFF80C2882F83311CEE6DFF8B1
:1010F000040890F8AC0080073DD4B819C078DFF838
:10110000F41781F88801DFF8EC07B0F8AC0050F074
:101110000200DFF8E017A1F8AC00DFF8D80790F87C
:101120003201002801D102F03BFEB819401CFEF745
:10113000E1FFDFF8C017D1F8049080B21E214843C8
:101140004FF4004181FB00014FF47A72002301F05B
:1011500043FE10EB0900DFF8E8190818DFF89417D0
:10116000C1F890010020DFF88C1781F89601012169
:101170001E20FFF797F93F1D88E6079800281CD12D
:101180000498002819D40398401B012815DB049803
:10119000012802DADFF8600701E0DFF8A809039907
:1011A000491B019115EB0801009101232200DFF892
:1011B0004417D1F81411FFF757F8DFF8380790F803
:1011C000440100280ED00A98002801D0802000E0B9
:1011D0004020DFF8201791F845110843DFF8141775
:1011E00081F845010498002813D5DFF8080790F826
:1011F000450150F02000DFF8FC1681F84501DFF8CA
:10120000F40680F846510020DFF8E81681F847011F
:1012100013E0DFF8E00690F8450150F01000DFF829
:10122000D41681F84501DFF8CC0680F846510398C2
:10123000401BDFF8C01681F8470101200DB0BDE862
:10124000F08F80B50220DFF8C01B81F84501DFF880
:10125000B80B90F82A0102F0DBFADFF8AC1BC8816A
:10126000DFF8A40BD0F82C01DFF89C1B886000206D
:10127000DFF8941B81F84701022002F00BFA01BD50
:10128000A3703D0038B504000D00DFF86806B0F823
:10129000AC0040F20261084040F2024188420DD1A8
:1012A000DFF8680BFFF746F9DFF84806B0F8AC0046
:1012B00050F40070DFF83C16A1F8AC00DFF83406FB
:1012C000007C07280CD1DFF82C0600682018401F8E
:1012D000DFF8201648600820DFF81816087414E0BC
:1012E000DFF8100600682018DFF8241BDFF804265A
:1012F000527C51F82210032202FB0100DFF8F415A2
:1013000048600520DFF8EC1508742A00DFF8E405D2
:101310004068B0F14101DFF8100C02F029FA31BD4C
:1013200010B50400DFF8780B02F0F2FADFF8D80A03
:1013300090F84711DFF86C0B02F0F5FADFF8C80AF5
:1013400090F84701002809D1DFF85C0B02F0E0FAC1
:101350000020DFF8B41A81F845012BE0DFF84C0BD0
:1013600002F0D6FADFF8A00A90F8471189B2DFF848
:10137000980ADFF8942A92F84621101810F5A47004
:1013800002F0A1FA0120DFF8801AC1F81401002050
:10139000FFF7D7F9DFF8700AB0F8AC004FF65951F3
:1013A0000840DFF8641AA1F8AC00FFF795FB0620AF
:1013B000FFF77FFB10BD00008400002010B5040083
:1013C000DFF8180BDFF8401AC861FFF73AFF10BDCD
:1013D000C400002010B50400DFF85C1B5FF480300F
:1013E000FFF750FF10BD0000640000209452000879
:1013F00010B5040000F0A6F910BD38B50400DFF800
:10140000440B90F84701002814D10020DFF8341B6A
:1014100081F8450102F06CF905000220FFF721F97F
:10142000DFF8082B401900F26661DFF81C0B02F0B0
:101430009FF901E000F086F931BD10B50400DFF836
:10144000F00ADFF8001BC861FFF7FBFE10BD10B506
:101450000400DFF8F81A0020FFF714FF10BD2DE993
:10146000FE4FDFF8A40990F8BC008DF800000024BE
:1014700001200290DFF8BC5ADFF87464029A290058
:10148000300000F0C5FD641C0826DFF8B07ADFF8F4
:101490007809201810F5A47832003900404600F091
:1014A000B7FD08345FF00808DFF8949ADFF85809B0
:1014B000201810F5A47A42464946504600F0A8FD8F
:1014C00008349DF800000190DFF884AADFF838099D
:1014D000201810F5A47B019A5146584600F098FD5B
:1014E0009DF800000419DFF8200980F84741BDE8A5
:1014F000F78F0000C0FDD13351CED53300A1BC33EE
:10150000C1C8C533A091D6338125DB3310B50400A3
:10151000002002F0BFF8DFF8300A02F0FCF8DFF834
:10152000E80890F8470100280ED1DFF8DC08B0F891
:10153000AC004FF6FC710840DFF8CC18A1F8AC0005
:101540000120FFF7B6FA32E0FFF712FB012812DAAA
:101550000020DFF8B41881F84701032002F09AF860
:10156000DFF8F029DFF8A008D0F89011DFF8D809EB
:1015700002F0FEF81BE001210D20FEF793FFDFF8DB
:101580008808B0F8AC004FF6FE710840DFF8781814
:10159000A1F8AC00DFF87008B0F8AC0050F0020021
:1015A000DFF86418A1F8AC000220FFF782FA10BD42
:1015B000C055703380B5DFF83C03D0F81401002823
:1015C00005D0DFF8300390F8AC00400701D502F0F9
:1015D000E7FBC84890F8AC0040062DD40020C54970
:1015E00081F89601C34981F82001C24981F844017C
:1015F000C048B0F8AC004FF67F71084050F00100D1
:10160000BC49A1F8AC00FFF707FA02F071F810F539
:101610008100B849C1F89001B648D0F89001B549A9
:101620004860DFF83029B3484168DFF81C0902F050
:101630009FF8032002F02EF801BD38B50400AC4D30
:101640002C70681C01F0F6F915F1090001F0FDF9A4
:10165000DFF8B407B0F8F21015F11100FEF766FDDF
:1016600013212800FEF7EEFD1720DFF89C1781F804
:101670004701DFF89407B0F8F200401CDFF8881744
:10168000A1F8F20031BD0000C452000810B50400FA
:101690000520FFF70EFA10BD80B59648D0F814016A
:1016A000002830D1934890F8AC009021084201D036
:1016B00002F076FB00208F4981F8A3008D48B0F836
:1016C000AC004EF2DE7108408A49A1F8AC0000205F
:1016D000884981F8BB00874981F84401854981F830
:1016E000B200FFF7B7F98348B0F8AC0050F004003F
:1016F0008049A1F8AC00DFF86018DFF84C0802F070
:1017000021F8012000E0002002BD10B50400DFF840
:10171000340890F8470100280CD00420DFF8241882
:1017200081F84501FFF7B0FA002803D00D20FFF73C
:10173000C0F901E000F008FA10BD000008E6D3335C
:1017400085EDFFFF80B5DFF8FC0790F8AC000006E0
:1017500001D402F025FBDFF8EC0790F847010028E0
:1017600040F0B780DFF8DC0790F8440100283DD056
:10177000DFF8D00790F84401082831DADFF8C40711
:1017800090F84401401CDFF8BC1781F84401DFF8F1
:10179000CC07DFF8B01791F84411095CDFF8A40713
:1017A00090F8B00002F010FB7FF07F020100C9B298
:1017B0000220FEF7A6FF0321DFF888074068FEF746
:1017C00076FFDFF88007B0F8AC004FF67F71084075
:1017D000DFF87017A1F8AC0000F0B6F9012086E040
:1017E0006020DFF8601781F8450104E02020DFF871
:1017F000541781F84501DFF84C0790F9210110F1E9
:10180000800F08D0DFF83C0790F82101401CDFF87A
:10181000341781F821010020DFF8281781F84701EB
:10182000DFF8200790F84701DFF8181781F8460124
:10183000DFF81007B0F8AC004FF677710840DFF81A
:101840000417A1F8AC00DFF8FC0690F84501072169
:10185000084213D0DFF8EC06B0F8AC00C0040DD598
:10186000DFF8E006B0F8AC004EF6FF710840DFF894
:10187000D416A1F8AC000F20FFF71BF90A20FFF7E0
:1018800018F9DFF8C00690F8320100281FD0DFF801
:10189000B40690F8AC00800708D50220FFF709F9DC
:1018A0000020DFF8A01681F8320110E0DFF894067E
:1018B00090F83201401EDFF88C1681F83201DFF813
:1018C000840690F83201002801D1FFF773FE012051
:1018D0000DE0FFF7D9F9002808D1DFF8680690F885
:1018E0004501C00701D5002001E03BE7A0E702BDAC
:1018F0008C01002044000020380100202DE9F04137
:101900000400DFF80405D0F89051DFF8FC0490F8EB
:101910009661DFF8F40490F84701002800F07F801A
:10192000FFF726F901287ADB04200700032006428E
:1019300004D100210D20FEF7B5FDD8E0DFF8C80482
:10194000D0F89001404215EB0008DFF8BC0490F895
:101950003101002814D0DFF8B004B0F8B4000FFA59
:1019600088F8DFF8A414B1F9B410B8EB0101DFF87E
:10197000982492F83121521C91FBF2F111EB0008EE
:10198000DFF8840490F89601400723D4DFF8780448
:10199000B0F8B400B0EB080000B2002801D500B2E6
:1019A0004042DFF86414A1F8B600DFF85C14B1F926
:1019B000B81000B2814203DADFF84C14A1F8B80085
:1019C000DFF8441491F8961111F0F701DFF838248C
:1019D00082F89611DFF83004A0F8B4800020DFF818
:1019E000281481F8B200DFF8200490F8B200DFF884
:1019F000181481F83101DFF8100490F8960110F006
:101A0000FB00DFF8041481F89601DFF8FC0390F87E
:101A100096010321084254D102F0C2F951E003209B
:101A20000700DFF8E403D0F8900110F58000DFF83C
:101A3000D813B1F9B410401ADFF8CC13C1F89001F3
:101A4000DFF8C403D0F898018030DFF8BC13C1F888
:101A50009801DFF8B40390F83101401CDFF8A813B7
:101A600081F831010421DFF8A003D0F89001DFF8FC
:101A7000F0241018FEF71BFEDFF88C0390F83101FC
:101A8000152809DBDFF88003B0F8AC0050F0200027
:101A9000DFF87413A1F8AC00DFF86C0390F889014B
:101AA00065280EDBDFF86003B0F8AC004FF6DD11FF
:101AB0000840DFF85413A1F8AC000B20FEF7F9FF43
:101AC00023E003210020FEF7ACFCDFF83C13D1F843
:101AD000901111F58001081ADFF82C13C1F88C0160
:101AE000DFF82403007CDFF8201381F88901DFF898
:101AF0001803B0F8AC00800503D5DFF81003FEF73B
:101B000019FD3800C0B2FEF7D4FFBDE8F08110B572
:101B10000400DFF85004DFF82C14C861022001F043
:101B2000B9FD10BD10B50400DFF83C04DFF8141453
:101B3000C861022001F0AEFD10BD00003055000864
:101B4000EC01C0FF480100202DE9F843AE4890F8B1
:101B5000AC00C121084240F05481AB48D0F81401D8
:101B6000002807D1A84890F8AC00400702D4FFF73E
:101B700093FD46E101F0BCFD040000250026A248CB
:101B800090F8AC0080070ED514F141009E49D1F8C1
:101B90008C11401A012801DB02F002F99A48D0F8B2
:101BA0008C0141380500984890F8AC003C2108426F
:101BB00000F0BC80944890F8AC002421084201D089
:101BC000012700E000279048B0F8AC0000050FD5D1
:101BD0002000FEF719FF8C49086006008A48B0F81B
:101BE000AC004FF2FF7108408749A1F8AC0002E059
:101BF000854800680600844890F8A300002804D1B6
:101C00008148B0F8AC00C00509D57F48D0F8A400E1
:101C1000301A002803D57C48D0F8A40006007A4882
:101C200090F8AC00800714D5FFB2002F02D05FF40B
:101C3000902001E05FF440308019401B012808DB50
:101C40001021DFF81C034019FEF731FD00200600CB
:101C500071E0301B413800285FD56B4890F8B080A8
:101C6000FFB2002F1AD0684890F8AC0080060AD561
:101C7000654890F8B2104046C0B202F0A5F8804620
:101C8000C020814601E0002081464846C0B2FFF7EF
:101C9000D4FCDFF8D8025C49C8611DE05A48D0F88E
:101CA000180110F1800F06D3DFF8C412DFF8980294
:101CB00001F048FDA5E0544890F84401002805D102
:101CC0005148D0F81C0110F1010FEDD0FFF7C7FB10
:101CD000DFF8A0024C49C8614046C0B202F086F865
:101CE000494991F8B11080B202F088F84649C8819C
:101CF000454880F811804448B0F8AC004FF6EF61D9
:101D0000084050F408604049A1F8AC003000FEF7EC
:101D10004BFE012001F0BEFC73E03B4890F8AC00A4
:101D2000800768D5002E06D1761C04E0364890F86E
:101D3000AC00800765D53448B0F8AC00800539D5D3
:101D400014F141013148FEF759FC002832D0002E31
:101D500005D02D48D0F83C01301A00284BD42A4831
:101D600090F83701284908742748D0F83C012649E3
:101D700048602548D0F8400123498860224890F8FF
:101D8000340101F045FD2049C88100201E4981F839
:101D900047011D484068001B4130002801D501F073
:101DA000FFFF754A18484068B0F14101664801F0EC
:101DB000DFFC26E0002E02D0701B00281BD4FEF7AB
:101DC0002BFE114890F889010F4908740E48D0F88D
:101DD0008C010D494860601B002806D461480A49FF
:101DE000C861022001F056FC0BE0644A2900564805
:101DF00001F0BEFC05E0624AB6F14101524801F033
:101E0000B7FCBDE8F1830000440000207801002009
:101E1000D853000870B5002001F03CFC424801F0A6
:101E20007AFC4FF4D4740025464E2A00210030007D
:101E300000F0AAF800204349C1F8140101F06BFB3F
:101E40000600F6B201F067FB50EA06203D49A1F812
:101E5000F20000203B49A1F8AC000020394981F88C
:101E6000B1008020374981F826010020354981F8EA
:101E70002A0144483349C1F82C0142483149C1F88C
:101E8000400103202F4981F83401FF202D4981F8BA
:101E9000350170BD40202B49A1F8AC00704700000F
:101EA00018540008205500086C53000878540008A6
:101EB00080B52448B0F8AC0050F008002149A1F8E2
:101EC000AC00204890F8AC00400703D400201D4926
:101ED00081F84401FFF738FE01BD0000211300081E
:101EE0002DE9F04104000D0016001F00F6B2352E5A
:101EF00002D37FF0010015E0002D07D0F6B2DFF825
:101F0000508032002900404600F082F80D4880F8E9
:101F1000BB700C4880F8BA400A4880F8BC60FFF7F4
:101F2000C7FF0020BDE8F08158000020F113000831
:101F3000FB13000835010020BD1300080C560008F3
:101F40001456000844000020580000203B140008EC
:101F5000010100200D1500088D160008C455000869
:101F60005C0F0100FD1800080B170008D5130008CE
:101F7000C50A00084F140008251B00080F1B0008A5
:101F8000A90A000808E6D33362F30F2262F31F4266
:101F9000401810F0030308D0C91A1FD3DB0748BF4D
:101FA00000F8012D28BF20F8022D130030B414468C
:101FB0001546103928BF20E93C00FAD8490728BF48
:101FC00020E90C0048BF40F8042D890028BF20F804
:101FD000022D48BF00F8012D30BC7047C91818BF4A
:101FE00000F8012DCB0728BF00F8012D704750F8ED
:101FF000041B61B150F8042BD30744BFA9F10103BE
:102000009A180023091F42F8043BFAD1EFE7704702
:1020100062B38B0708D0521E11F8013B00F8013B58
:1020200000F024808B07F6D1830740F0208000BFAA
:10203000103A07D330B4B1E83810103AA0E838109D
:10204000F9D230BC530724BFB1E80810A0E808104B
:1020500044BF51F8043B40F8043BD20724BF31F899
:10206000022B20F8022B44BF0B7803707047083A0C
:1020700007D3B1E80810083A40F8043B40F804CB15
:10208000F7D25307E4E7000010B400221000042840
:1020900020DADFF8802952F82020DFF8783953F869
:1020A000203013F47F431B0253EA0262DFF86439E5
:1020B00053F820301B0A13F47F431A43DFF85439D6
:1020C00053F8203052EA1362DFF8483943F82020F1
:1020D000401CDCE7DFF83C29D26811002C2835DAF7
:1020E000042290FBF2F303FB1203002B21D1DFF853
:1020F00028290B0CDBB29A5CDFF81C390C0AE4B21D
:10210000E35C1B0493EA0262DFF80C390C00E4B2D2
:10211000E35C92EA0322DFF80039090EC95C514002
:10212000021F042392FBF3F2DFF8F03853F8222069
:102130005140DFF8E02812EB800252F8102C514099
:10214000DFF8D02842F82010401CC7E710BC7047C9
:102150002DE9F84F04000D001600FFF795FF20074A
:102160000DD50020DFF8B818C860DFF8B418886013
:10217000DFF8AC184860DFF8A818086067E0DFF8FF
:10218000A0080068DFF89818096811F47F41090277
:1021900051EA0060DFF888180968090A11F47F41E4
:1021A0000843DFF87C18096850EA1160DFF87018FE
:1021B0000860DFF86C084068DFF86418496811F4BB
:1021C0007F41090251EA0060DFF854184968090AA2
:1021D00011F47F410843DFF84818496850EA11605C
:1021E000DFF83C184860DFF838088068DFF83018FE
:1021F000896811F47F41090251EA0060DFF8201874
:102200008968090A11F47F410843DFF814188968C6
:1022100050EA1160DFF808188860DFF80408C06829
:10222000DFF8FC17C96811F47F41090251EA006028
:10223000DFF8EC17C968090A11F47F410843DFF899
:10224000E017C96850EA1160DFF8D417C8603000A1
:1022500040B20128C0F2D9835FEA447C04D414F070
:102260000A0CBCF1020F14D1DFF8B4C7DCF800C0CF
:102270006046DFF8ACC7DCF804C06146DFF8A0C7F1
:10228000DCF808C06246DFF898C7DCF80CC063468B
:1022900051E05FEA847C13D5B6B2112E10DA5FF0FC
:1022A000000C6346624661466046B6B2102E02D10B
:1022B0005FF0010C01E05FF0020C54EA0C143AE00C
:1022C0005FF0000C6746102F1AD2B6B2B74202D2A6
:1022D00017F805C007E0B6B2B74202D15FF0800C34
:1022E00001E05FF0000C5CEA0E2E17F0030CBCF16D
:1022F000030F03D1080011001A0073467F1CE2E7A8
:102300005FEA847C17D5DFF818C7DCF800C09CEAC8
:102310000000DFF80CC7DCF804C09CEA0101DFF81C
:1023200000C7DCF808C09CEA0202DFF8F4C6DCF85B
:102330000CC09CEA0303DFF8DCC6E2461AF1800B0E
:10234000CDF800B0DAF800C09CEA0000DAF804C06A
:102350009CEA0101DAF808C09CEA0202DAF80CC033
:102360009CEA0303DAF814C0E646DAF818C0E0463F
:10237000DAF81CC0E146DAF810C06746DFF8A4C6F8
:1023800083465FFA8BFB5CF82BC09CEA0E0EDFF8ED
:1023900098C65FEA102B5FFA8BFB5CF82BC09CEAB7
:1023A0000808DFF888C65FEA104B5FFA8BFB5CF821
:1023B0002BC09CEA0909DFF878C65FEA106B5CF86D
:1023C0002BC09CEA0707DFF85CC68B465FFA8BFBE5
:1023D0005CF82BC09CEA0808DFF84CC65FEA112BBA
:1023E0005FFA8BFB5CF82BC09CEA0909DFF83CC65E
:1023F0005FEA114B5FFA8BFB5CF82BC09CEA070786
:10240000DFF82CC65FEA116B5CF82BC09CEA0E0E5D
:10241000DFF810C693465FFA8BFB5CF82BC09CEA92
:102420000909DFF804C65FEA122B5FFA8BFB5CF840
:102430002BC09CEA0707DFF8F4C55FEA124B5FFA8E
:102440008BFB5CF82BC09CEA0E0EDFF8E4C55FEA5C
:10245000126B5CF82BC09CEA0808DFF8C8C59B46E5
:102460005FFA8BFB5CF82BC09CEA0707DFF8B8C566
:102470005FEA132B5FFA8BFB5CF82BC09CEA0E0E15
:10248000DFF8A8C55FEA134B5FFA8BFB5CF82BC043
:102490009CEA0808DFF898C55FEA136B5CF82BC06C
:1024A0009CEA0909DAF824C06146DAF828C06246D5
:1024B000DAF82CC06346DAF820C06046DFF864C55D
:1024C000BB465FFA8BFB5CF82BC09CEA0101DFF88E
:1024D00058C55FEA172B5FFA8BFB5CF82BC09CEAB0
:1024E0000202DFF848C55FEA174B5FFA8BFB5CF826
:1024F0002BC09CEA0303DFF838C55FEA176B5CF872
:102500002BC09CEA0000DFF81CC5F3465FFA8BFB8A
:102510005CF82BC09CEA0202DFF80CC55FEA1E2BB8
:102520005FFA8BFB5CF82BC09CEA0303DFF8FCC46A
:102530005FEA1E4B5FFA8BFB5CF82BC09CEA000045
:10254000DFF8ECC45FEA1E6B5CF82BC09CEA01016B
:10255000DFF8D0C4C3465FFA8BFB5CF82BC09CEA63
:102560000303DFF8C4C45FEA182B5FFA8BFB5CF847
:102570002BC09CEA0000DFF8B4C45FEA184B5FFA96
:102580008BFB5CF82BC09CEA0101DFF8A4C45FEA76
:10259000186B5CF82BC09CEA0202DFF888C4CB46BB
:1025A0005FFA8BFB5CF82BC09CEA0000DFF878C474
:1025B0005FEA192B5FFA8BFB5CF82BC09CEA0101E8
:1025C000DFF868C45FEA194B5FFA8BFB5CF82BC03D
:1025D0009CEA0202DFF858C45FEA196B5CF82BC072
:1025E0009CEA03031AF1200ADDF800C0E245FFF47B
:1025F000B9AEDAF814C0E646DAF818C0E046DAF800
:102600001CC0E146DAF810C06746DFF818C48346FC
:102610005FFA8BFB5CF82BC09CEA0E0EDFF808C457
:102620005FEA102B5FFA8BFB5CF82BC09CEA080872
:10263000DFF8F8C35FEA104B5FFA8BFB5CF82BC046
:102640009CEA0909DFF8E8C35FEA106B5CF82BC06D
:102650009CEA0707DFF8CCC38B465FFA8BFB5CF87C
:102660002BC09CEA0808DFF8C0C35FEA112B5FFAB1
:102670008BFB5CF82BC09CEA0909DFF8B0C35FEA6A
:10268000114B5FFA8BFB5CF82BC09CEA0707DFF865
:10269000A0C35FEA116B5CF82BC09CEA0E0EDFF85A
:1026A00084C393465FFA8BFB5CF82BC09CEA090954
:1026B000DFF874C35FEA122B5FFA8BFB5CF82BC068
:1026C0009CEA0707DFF864C35FEA124B5FFA8BFBF3
:1026D0005CF82BC09CEA0E0EDFF854C35FEA126B65
:1026E0005CF82BC09CEA0808DFF838C39B465FFA09
:1026F0008BFB5CF82BC09CEA0707DFF82CC35FEA72
:10270000132B5FFA8BFB5CF82BC09CEA0E0EDFF8F4
:102710001CC35FEA134B5FFA8BFB5CF82BC09CEA8F
:102720000808DFF80CC35FEA136B5CF82BC09CEA67
:102730000909DAF820C06046DFF8DCC25FEA176BEF
:102740001BF80CC090EA0C60DFF8CCC25FEA1E4BAD
:102750005FFA8BFB1BF80CC090EA0C40DFF8B8C2A4
:102760005FEA182B5FFA8BFB1BF80CC090EA0C2079
:10277000DFF8A4C2CB465FFA8BFB1BF80CC09CEAC7
:102780000000DAF824C06146DFF88CC25FEA1E6BF5
:102790001BF80CC091EA0C61DFF87CC25FEA184BB1
:1027A0005FFA8BFB1BF80CC091EA0C41DFF868C2A2
:1027B0005FEA192B5FFA8BFB1BF80CC091EA0C2126
:1027C000DFF854C2BB465FFA8BFB1BF80CC09CEAD7
:1027D0000101DAF828C06246DFF83CC25FEA186BF4
:1027E0001BF80CC092EA0C62DFF82CC25FEA194BAE
:1027F0005FFA8BFB1BF80CC092EA0C42DFF818C2A0
:102800005FEA172B5FFA8BFB1BF80CC092EA0C22D5
:10281000DFF804C2F3465FFA8BFB1BF80CC09CEA9E
:102820000202DAF82CC06346DFF8ECC15FEA196BEC
:102830001BF80CC093EA0C63DFF8DCC15FEA174BAE
:102840005FFA8BFB1BF80CC093EA0C43DFF8C8C19E
:102850005FEA1E2B5FFA8BFB1BF80CC093EA0C237C
:10286000DFF8B4C1C3465FFA8BFB1BF80CC09CEACF
:1028700003035FEA847C5CD5C4F3011C5FFA8CFC23
:10288000E646BEF1000F43D05FEAD07C67465FEAC0
:10289000D17C5CEA40005FEAD27C5CEA41015FEAFD
:1028A000D37C5CEA42025B00002F01D093F08703E7
:1028B000BEF1010EBEF1000FE6D1DFF864C1DCF815
:1028C00000C090EA0C0CDFF858B1CBF800C0DFF87C
:1028D00050C1DCF804C091EA0C0CDFF844B1CBF82D
:1028E00004C0DFF83CC1DCF808C092EA0C0CDFF849
:1028F00030B1CBF808C0DFF828C1DCF80CC093EA8F
:102900000C0CDFF81CB1CBF80CC014F0CF04D7E4EA
:10291000DFF80CC1CCF80000DFF804C1CCF80410DB
:10292000DFF8FCC0CCF80820DFF8F4C0CCF80C309D
:1029300061E05FEA447C2AD5B6B2112E01DB102794
:1029400001E0B6B237005FF0000CE646BE4513D298
:102950001EF805C05FEA106B9BEA0C0C0EF805C070
:1029600000021EF0030CBCF1030F02D1080011009D
:102970001A001EF1010EE9E7DFF8A4C0DCF80CC074
:102980001CF1010CDFF898B0CBF80CC033E05FEA23
:10299000106C85F800C05FEA104C85F801C05FEA52
:1029A000102C85F802C0E8705FEA116C85F804C04D
:1029B0005FEA114C85F805C05FEA112C85F806C066
:1029C000E9715FEA126C85F808C05FEA124C85F87D
:1029D00009C05FEA122C85F80AC0EA725FEA136C3C
:1029E00085F80CC05FEA134C85F80DC05FEA132C24
:1029F00085F80EC0EB7314F00A0CBCF1020F01D085
:102A00001035103E54F0080421E405480068BDE884
:102A1000F28F0000EC010020305100081C53000828
:102A20009C020020C04B0008C0470008C0430008BB
:102A3000C03F000870B504000825DFF830632A00A5
:102A400031002000FFF7E4FA70BD70B504000825DE
:102A5000DFF81C632A0031002000FFF7D9FA70BDAF
:102A600070B504001025DFF80C632A003100200047
:102A7000FFF7CEFA70BD10B50400FFF7CBF9FEF7F3
:102A80000BFE10BDE0B500F023FE00F0D9FEBA4900
:102A900000A800F057FE00F08BFE00200EBD10B520
:102AA0000400B6480078002803D10120B34908701B
:102AB00002E00020B1490870B048007800F0E2FE62
:102AC00000F016FEAE4A00F6CC41200000F050FEA9
:102AD00010BD80B5AB4800780A2814DAA948007800
:102AE000401CA84908700120A74981F8F100002383
:102AF000A648007805214843421CD2B2A1490120D2
:102B0000FFF7EEF918E002209F4981F8F1009F4895
:102B10000078401C9D49087000209A4908700023E5
:102B2000012298490120FFF7DBF9984800780A282C
:102B300002D101209649087001BD80B59148007806
:102B400064280FDA8F480078401C8E4908700120F5
:102B50008D4981F8F100002301228E490120FFF701
:102B6000BFF918E00220884981F8F1008748007811
:102B7000401C864908700020824908700023012209
:102B800084490120FFF7ACF980480078032802D17E
:102B900001207F49087001BD80B57A48007864281B
:102BA0000FDA78480078401C764908700120764991
:102BB00081F8F1000023012276490120FFF790F906
:102BC00018E00220704981F8F10070480078401C3C
:102BD0006E49087000206B490870002301226D497E
:102BE0000120FFF77DF9694800780A2802D1012009
:102BF0006749087001BD80B56248007864280FDA23
:102C000060480078401C5F49087001205E4981F8E7
:102C1000F100002301225F490120FFF761F918E06C
:102C20000220594981F8F10058480078401C574962
:102C300008700020534908700023012255490120E3
:102C4000FFF74EF951480078062802D1012050497B
:102C5000087001BD80B54B48007864280FDA4948F8
:102C60000078401C474908700120474981F8F1006D
:102C70000023012247490120FFF732F918E0022022
:102C8000414981F8F10041480078401C3F490870F3
:102C900000203C490870002301223E490120FFF733
:102CA0001FF93A480078042802D1012038490870F9
:102CB00001BD80B538480078002806D002280AD027
:102CC00006D304280DD009D30DE0FFF702FF0AE078
:102CD000FFF733FF07E0FFF75FFF04E0FFF78BFF2D
:102CE00001E0FFF7B7FF01BD10B50400E4B220001A
:102CF00000F029FEE4B22000052804D0062809D0FF
:102D00000A2813D031E0254800F002FE2448FFF7DE
:102D1000C6FE2AE0234800F0FBFD012000F0B2FDD2
:102D20001F4800F0F8FCFFF7C4FF1EE018480078C9
:102D300001281AD0144890F84701002810D01A48EA
:102D400000F0E6FD104890F8471189B20E480E4A8F
:102D500092F84621101810F5A47000F0B4FD02E0BE
:102D6000124800F0D5FDFFF7A4FF10BD1C56000867
:102D70002456000840550008772A0008DB0200208E
:102D80009F2A0008D802002044000020DA02002018
:102D9000D902002040000020DC020020BC540008C2
:102DA000BC02002090530008F8530008305200087D
:102DB00010F007007047C0F3C100C0B27047C0F305
:102DC000C01080B2704780B2000A80B27047C0F372
:102DD0004110C0B27047000013F0004C03D55B42B5
:102DE000524263F100039CEA210C00F0178010B5F9
:102DF000644603D34942404261F1000100F00EF8FD
:102E0000640004D34942404261F10001244203D5E9
:102E10005B42524263F1000310BD00001B4213D11C
:102E2000094236D12AB18446B0FBF2F002FB10C24F
:102E3000704700F0EBBFFCD30022002370470B006B
:102E40000200002100207047904271EB030CF6D382
:102E500070B5B1FA81F4B3FA83F52C1BA340C4F129
:102E6000200532FA05F63343A2405FF00046E64003
:102E700002E05B085FEA3202841A71EB030524BFAB
:102E8000204629467641F4D302000B003000002191
:102E900070BD012ACFD970B5140C20D0B1FA81F4DD
:102EA000B2FA82F5C4F120046419B4F12006D6D335
:102EB000B2405FF00044F440002502E052085FEAAF
:102EC0003303C61A71EB020E24BF304671466441CB
:102ED0006D41F3D302000B002000290070BD0C46A9
:102EE000B1FBF2F102FB11452D0445EA1045B5FB9B
:102EF000F2F402FB145580B240EA0545B5FBF2F04E
:102F000002FB105240EA044070BD000038B50400D6
:102F10000D00002000F0A9FD54F08000C0B200F0C8
:102F200025FE2800C0B200F021FE012000F09DFD2A
:102F300031BD38B50400002000F097FD14F07F008B
:102F400000F014FE002000F011FE0500012000F04A
:102F50008CFD2800C0B232BDF8B504000D0016008B
:102F6000002000F082FD54F08000C0B200F0FEFDB1
:102F70000027FFB2F6B2B74205D2FFB2785D00F08B
:102F8000F5FD7F1CF5E7012000F06FFDF1BDF8B500
:102F900004000D001600002000F067FD14F07F0013
:102FA00000F0E4FD0027FFB2F6B2B74206D20020DF
:102FB00000F0DCFDFFB278557F1CF4E7012000F043
:102FC00054FDF1BD10B504000120FFF7B2FF10F071
:102FD000F80054EA0001C9B20120FFF797FF10BDC5
:102FE00010B580242100C9B20120FFF78FFF10BD6A
:102FF00010B500242100C9B20120FFF787FF10BDE2
:1030000038B5DFF87406C089FFF7D2FE0400DFF898
:103010006806C089FFF7CFFE8501DFF85C06C0892E
:10302000FFF7D5FE002805D0022809D005D30328D4
:1030300009D00AE055F0080507E055F0100504E056
:1030400055F0180501E055F02005E4B2052C02D03A
:10305000E4B2062C08D1DFF82006C089FFF7ABFEEA
:10306000002801D155F00105DFF80C06C089FFF7F3
:10307000A6FE002801D155F00205DFF8FC05C08945
:10308000FFF7A1FE00280BD055F00405DFF8E80596
:10309000C089FFF798FE0100C9B22220FFF736FF72
:1030A0002900C9B21D20FFF731FF2001603050F028
:1030B0000401C9B21E20FFF729FF31BD38B5DFF882
:1030C000B80580680021C90441EA5031C004DFF826
:1030D000AC250023FFF7A2FE04000D00210CC9B2AD
:1030E0000620FFF713FF200080B2010AC9B20720B3
:1030F000FFF70CFF2100C9B20820FFF707FF31BD21
:1031000010B5DFF8740590F9124064B2122C02DB9E
:103110001120040004E064B2022C01DA0220040051
:10312000A01E50F08001C9B20920FFF7EFFE10BDCC
:1031300080B510210120FFF7E9FE0120FFF7F9FE1D
:10314000102801D000F02CFE0120FFF73BFF0221E8
:103150000220FFF7DBFE80210320FFF7D7FE0121CD
:103160000420FFF7D3FE99210520FFF7CFFE0021B1
:103170002520FFF7CBFE05212620FFF7C7FE1221F1
:103180002720FFF7C3FED0213020FFF7BFFE4021EC
:103190003120FFF7BBFEC1212820FFF7B7FE9421A5
:1031A0002920FFF7B3FEC1212A20FFF7AFFEFFF76A
:1031B00085FFFFF7A5FF34214020FFF7A7FEDFF8CA
:1031C000B80490F84701411CC9B23220FFF79EFEB7
:1031D000DFF8A40490F847110020FFF797FEDFF80E
:1031E000980490F84721DFF898140020FFF7B4FE08
:1031F000012000F022FC0320FFF7E4FE01BD80B5B2
:10320000FFF7EEFE0120FFF794FE000601D400F068
:10321000C7FD0120FFF7D6FEFFF7F2FEFFF74EFFD6
:103220000A20FFF786FE10F0F00050F00801C9B246
:103230000A20FFF76BFEFFF763FF34213920FFF709
:1032400065FEF0214020FFF761FEFF211220FFF70D
:103250005DFEF7211120FFF759FE00210E20FFF738
:1032600055FE00210D20FFF751FEDFF80C0490F809
:1032700047112220FFF74AFEDFF8FC0390F84721B0
:10328000DFF8FC130020FFF767FE012000F0D5FBFC
:103290000320FFF797FE01BD80B50120FFF749FE2F
:1032A0000721084201D000F07BFDDFF8CC03C08984
:1032B000FFF77EFD002802D1FFF73AFF01E0FFF79C
:1032C0009EFF01BD10B50400FFF78AFE0120FFF745
:1032D00030FE000601D400F063FD0120FFF772FE0E
:1032E000E4B2022C08D10A211D20FFF70FFE742141
:1032F0001E20FFF70BFE03E0FFF782FEFFF7DEFE66
:1033000023210C20FFF702FE40212320FFF7FEFDC2
:103310003320FFF70EFE50F04001C9B23320FFF713
:10332000F5FDDFF85403017C1F20FFF7EFFD34218A
:103330003920FFF7EBFDC0214020FFF7E7FDFF211B
:103340001220FFF7E3FDCF48E4B2205CC143C9B2CD
:103350001120FFF7DBFD002000F06FFBE4B2002C32
:1033600007D1C548406800F072FC0620FFF72AFE2E
:1033700002E00520FFF726FE10BD10B50400E4B200
:10338000002C01D000F00CFDFFF732FE0120FFF70A
:10339000D0FD000601D500F003FD0120FFF712FE6D
:1033A000FFF78CFE23210C20FFF7B0FD1E210D201E
:1033B000FFF7ACFD0B211220FFF7A8FD122113200F
:1033C000FFF7A4FDAA211F20FFF7A0FD122127204F
:1033D000FFF79CFDD8213020FFF798FD40213120D8
:1033E000FFF794FDC1212820FFF790FD94212920AB
:1033F000FFF78CFDC1212A20FFF788FDFF21212046
:10340000FFF784FD02210220FFF780FD80210320C9
:10341000FFF77CFD01210420FFF778FD99210520AD
:10342000FFF774FD38214020FFF770FD002000F009
:1034300004FB9148406800F00AFC0520FFF7C2FD3C
:1034400010BD10B504000120FFF773FD07210842ED
:1034500001D000F0A5FC8848C089FFF7A9FC00282E
:1034600004D12000C0B2FFF788FF03E02000C0B203
:10347000FFF728FF10BDF8B500F031FC012000F087
:10348000FDFA00F035F9203000F0E1FB022000F0F9
:10349000F5FA00F02DF9A33000F0D9FB0020FFF77A
:1034A00091FD4220FFF745FD0400E4B2222C01D03B
:1034B00000F076FC0220FFF705FF0120FFF739FD41
:1034C00010F007000528F8D10125102D1ADA002682
:1034D000082E15DA2C20FFF72CFD10F00100070054
:1034E000FFB22C20FFF725FD10F001008742F1D03C
:1034F0006548285C57EA400063496854761CE7E752
:103500006D1CE2E71020604908700020FFF75AFDAB
:1035100000F0ECFBF1BD10B55B480478E4B2002C80
:1035200001D100F03DFCE4B2102C06D11022564926
:103530000020FEF70DFE002004005348E4B2205C9A
:10354000641C51490C70C0B210BDF8B5040000F005
:10355000CFF805000120FFF7ECFC000655D512203E
:10356000FFF7E7FC0600300703D5681E42490860F4
:1035700042E070063AD54048C089FFF71CFC00289D
:1035800008D13D48C089FFF713FC404931F81000CD
:10359000281A0500384845601D20FFF7CAFC40077F
:1035A00003D52220FFF7C5FC02E01320FFF7C1FC82
:1035B000314981F847011020FFF7BBFC0100C9B277
:1035C0000D20FFF7A3FC2C4890F847212C49002040
:1035D000FFF7DDFC1920FFF7ACFC274948731A20E0
:1035E000FFF7A7FC3D382449087305E0300603D5F2
:1035F0000020214981F84701FF211120FFF786FCB7
:10360000FF211220FFF782FC2CE03E20FFF791FC07
:1036100006003F20FFF78DFC0700380702D516484B
:1036200005601FE0780715D5134845603220FFF785
:1036300080FC114981F847010F4890F84721104953
:103640000020FFF7A4FC00200B49487300200A4922
:10365000087307E0700704D50020074981F8470187
:1036600000E0FEE70020FFF7ADFC0348C169084811
:1036700000F068F8F1BD0000440000200048E801B7
:103680008C0100202C560008AC0200205055000888
:103690005800002010B5040000F021FBE4B2002C1B
:1036A00005D0022C0AD006D3032C0BD00DE000204D
:1036B000FFF788FC09E0FFF7EFFD06E00020FFF7C9
:1036C000C0FE02E00120FFF7BCFE00F00FFB10BDC2
:1036D00070B5082400254C4E2A0021003000FEF76A
:1036E00053FC00F016FBFFF7C6FEFEF7D3FB70BDE0
:1036F00080B500F084FA02BD02001068002808D0EE
:103700001068884203D108681060012002E0126846
:10371000F3E70020704710B5040000F0E0FA210044
:103720003948FFF7E9FF002805D121003748FFF7A6
:10373000E3FF002801D0012000E00020C0B200F02B
:10374000D5FA10BD70B504000D0000F0C8FA2000D5
:10375000FFF7E1FFA560002020602C4806003068DC
:10376000002801D03668FAE7346000F0BFFA70BD77
:10377000F8B504000D00160000F0B1FA2000FFF7C4
:10378000CAFF6560A660002020601F4807003868F7
:10379000002809D038684068401B012802DB3868DF
:1037A000206001E03F68F2E73C6000F09FFAF1BD65
:1037B00010B5002400F093FA13484068002806D0A2
:1037C00011484068040020680F49486013E00E4823
:1037D000006800280DD00C480068406800F03FFAEF
:1037E000002806D0084800680400206806490860E0
:1037F00001E000F086FA00F079FA002CD9D0200020
:10380000A1688847D5E70000D0020020D40200203C
:1038100010B504002000C0B200F0E8FA012180B227
:1038200000F001F810BD4FF67F72104050EAC11051
:1038300080B27047C0B250EA012080B270470000E9
:1038400080B54FF434720821464800F0E1FA0020B8
:1038500000F018F84448006850F48040424908607D
:1038600040F2E72209213F4800F0D2FA40F2151059
:103870003E49088042F208003D4908803D4800F07A
:1038800047F801BD10B504002200D2B20821354826
:1038900000F005FB10BD384909880906FBD5C0B208
:1038A00036490880704710B504003548E4B221114C
:1038B000085CFFF7F0FF3248E4B214F00F01085C37
:1038C000FFF7E9FF10BD38B504000D002800451EC4
:1038D00080B2002807D02078FFF7E5FF641C202085
:1038E000FFF7D9FFF2E70D20FFF7D5FF0A20FFF71A
:1038F000D2FF31BD38B5040018256DB2002D06D4B5
:103900002000E840C0B2FFF7CEFF083DF5E731BD2B
:1039100010B504002078002804D02078FFF7BBFF02
:10392000641CF7E710BD38B504000D002000FFF758
:10393000EFFF2800FFF7DEFF0D20FFF7ACFF0A20A6
:10394000FFF7A9FF31BD10B504000E4850F8240060
:10395000FFF7DEFF0D20FFF79EFF0A20FFF79BFF1A
:1039600010BD00000000024020380240083801402D
:103970000C3801406452000800380140043801400E
:10398000A85400080000002038B5DFF8B003006834
:1039900050F00700DFF8A41308600024E4B2062CFE
:1039A00026D24FF43472DFF89803E4B2201841783D
:1039B000DFF88C03E4B2205C4FF48063DFF88453BB
:1039C00003FB005000F024FA0022DFF87403E4B295
:1039D00020184178DFF86803E4B2205C4FF480637C
:1039E000DFF8605303FB005000F059FAA41CD5E740
:1039F0000024E4B2062C1FD24FF4E072DFF8480333
:103A0000E4B220184178DFF84003E4B2205C4FF4C0
:103A10008063DFF8305303FB005000F0F9F92822EF
:103A2000DFF82403E4B220184178C748E4B2205CF0
:103A300000F042FAA41CDCE731BD10B50400E4B28A
:103A4000012C04D0E4B2002C01D000F0A9F9E4B2BA
:103A5000E243D2B20D21BD4800F021FA2200D2B2D9
:103A60000421B84800F01BFA10BD10B50400220074
:103A7000D2B20021B64800F012FA10BD10B5040011
:103A8000E4B2002C02D0E4B2012C0CD14FF4347219
:103A90000221AC4800F0BCF92200D2B20221A948B0
:103AA00000F0FDF905E04FF4E0720221A54800F0B6
:103AB000AFF910BD80B5A7480068800705D5022082
:103AC000A44908600020FFF740FDA24800684005B7
:103AD00006D54FF480609F4908600120FFF735FD4F
:103AE0009C480068000506D54FF4006099490860BD
:103AF0000220FFF72AFD01BD80B5FFF7DBFF01BD06
:103B000080B5FFF7D7FF01BD80B5FFF7D3FF01BD3B
:103B100080B5FFF7CFFF01BD80B5FFF7CBFF01BD3B
:103B200080B5FFF7C7FF01BD80B5FFF7C3FF01BD3B
:103B300080B58948006850F480508749086040F299
:103B4000E54205217F4800F063F940F2E542062195
:103B50007C4800F05DF940F2E5420721794800F029
:103B600057F94FF451707D49088001BD0100C9B279
:103B70007B4801807B480088C007FBD578480088D7
:103B8000C0B270477848006850F480707649086089
:103B90007648006850F48070744908607348006883
:103BA0008005FBD56C48006850F004006A49086045
:103BB0006F48006850F004006D4908606D48006867
:103BC00050F004006B4908606A48006830F0040057
:103BD000684908604FF48040674908807020674951
:103BE00008705FF00070664908606648008850F011
:103BF000010064490880012063490880704738B596
:103C000000F06DF8614844686148056861480088C3
:103C1000C00703D55E4800680500641C00F066F824
:103C2000ADB255EA044032BD10B50400FFF7E7FF1E
:103C30000100621A012A01DA002007E010140028AE
:103C400002D04FF6FF7001E0100080B210BD10B539
:103C500004002000FFF7E8FF0028FAD110BD38B5B6
:103C600004004C4800884FF6FB7108404949088021
:103C70002000FFF7D9FF050080B2052808DA414887
:103C800000884FF6FB7108403E490880012012E091
:103C90003F480068ADB228183F490860394800889D
:103CA00050F00400374908803C48008850F010006C
:103CB0003A490880002032BD36480088C00704D544
:103CC00032484068401C314948603248008840070B
:103CD00001D52C48008800202E490880704772B614
:103CE0002A480068401C2949086070472748006836
:103CF000401E2649086025480068002800D162B6A9
:103D000070471948006850F001001749086030BF3B
:103D1000704770B5082400251C4E2A002100300091
:103D2000FEF732F9FFF7DBFFFFF72EFEFFF700FF8C
:103D3000FFF728FFFFF7DAFF70BD00001C380240D4
:103D4000FC5500080000024004560008000802402C
:103D500000040240140401402038024000300140B9
:103D60000C300140083001400070004034380240FF
:103D70002C380240143802400808014019E400E0E1
:103D800000E100E00C08014000080140C8020020EA
:103D90002408014010080140380801402008014073
:103DA00080B5FFF79CFFFFF7ACFFFEE70549C0B207
:103DB00040184078FF2801D0012000E00020C0B268
:103DC000704700BFB855000838B504000D00280042
:103DD000451EC0B2002805D02000C0B200F0E6F8B1
:103DE0000400F4E72000C0B232BD00000249C0B2B6
:103DF0004018407880B27047B85500084FF69F725F
:103E00001040C9B250EA411080B2704770470000BC
:103E1000F0B4C9B24B00C9B2CC1010EB8404C9B2E3
:103E2000CD1010EB85052D6A0F2611F00707FFB2A4
:103E3000BF00BE40B54392B212F00F0611F0070763
:103E4000FFB2BF00BE4035432562046803259D4094
:103E5000AC43C2F30115ADB29D402C4304608468AD
:103E600003259D40AC43C2F38115ADB29D402C4368
:103E70008460848801258D40AC43C2F30025ADB237
:103E80008D402C438480C46803259D40AC43C2F31D
:103E90004125ADB29D402C43C460F0BC704710B4C6
:103EA000838A01248C40A343D2B212F001048C40D7
:103EB0002343838210BC7047F0B5354B1B6853F029
:103EC0000103334C2360C9B211F003039B000F249C
:103ED0009C40304DC9B28E1055F82650A543C0B253
:103EE00010FA03F635432B4EC9B28F1046F827500F
:103EF00001258D40284E3668AE43274F3E60274E41
:103F00003668AE43254F3E60D2B212F03806F6B2A4
:103F1000202E0AD0282E02D0302E0CD015E01E4EB6
:103F200036682E431C4F3E600FE01C4E36682E4311
:103F30001A4F3E6009E0184E36682E43164F3E6019
:103F4000164E36682E43154F3E60154E36682E438A
:103F5000134F3E60C9B2052901DA8E1D05E0C9B2D2
:103F60000A2901DA172600E028267027DFF834C076
:103F7000F6B206F80C70012716F01F0C17FA0CF7B2
:103F8000DFF824C0F6B25FEA661E4CF82E70F0BD72
:103F90002038024008000140080401400C040140A0
:103FA0000004014000E400E000E100E00349C0B289
:103FB000415CFF2900D0401EC0B27047B8550008D0
:103FC000A56363C6847C7CF8997777EE8D7B7BF65E
:103FD0000DF2F2FFBD6B6BD6B16F6FDE54C5C591AC
:103FE0005030306003010102A96767CE7D2B2B564C
:103FF00019FEFEE762D7D7B5E6ABAB4D9A7676EC05
:1040000045CACA8F9D82821F40C9C989877D7DFAB2
:1040100015FAFAEFEB5959B2C947478E0BF0F0FB8E
:10402000ECADAD4167D4D4B3FDA2A25FEAAFAF451A
:10403000BF9C9C23F7A4A453967272E45BC0C09B00
:10404000C2B7B7751CFDFDE1AE93933D6A26264CC1
:104050005A36366C413F3F7E02F7F7F54FCCCC83A2
:104060005C343468F4A5A55134E5E5D108F1F1F9E3
:10407000937171E273D8D8AB533131623F15152A71
:104080000C04040852C7C795652323465EC3C39D2D
:1040900028181830A19696370F05050AB59A9A2F59
:1040A0000907070E361212249B80801B3DE2E2DFD7
:1040B00026EBEBCD6927274ECDB2B27F9F7575EA0F
:1040C0001B0909129E83831D742C2C582E1A1A3436
:1040D0002D1B1B36B26E6EDCEE5A5AB4FBA0A05BF1
:1040E000F65252A44D3B3B7661D6D6B7CEB3B37DE4
:1040F0007B2929523EE3E3DD712F2F5E97848413E1
:10410000F55353A668D1D1B9000000002CEDEDC1E4
:10411000602020401FFCFCE3C8B1B179ED5B5BB6C9
:10412000BE6A6AD446CBCB8DD9BEBE674B393972D5
:10413000DE4A4A94D44C4C98E85858B04ACFCF85C0
:104140006BD0D0BB2AEFEFC5E5AAAA4F16FBFBED5B
:10415000C5434386D74D4D9A5533336694858511B3
:10416000CF45458A10F9F9E906020204817F7FFEF6
:10417000F05050A0443C3C78BA9F9F25E3A8A84B40
:10418000F35151A2FEA3A35DC04040808A8F8F05EA
:10419000AD92923FBC9D9D214838387004F5F5F1F1
:1041A000DFBCBC63C1B6B67775DADAAF63212142F2
:1041B000301010201AFFFFE50EF3F3FD6DD2D2BFD1
:1041C0004CCDCD81140C0C18351313262FECECC3F9
:1041D000E15F5FBEA2979735CC4444883917172E0C
:1041E00057C4C493F2A7A755827E7EFC473D3D7A13
:1041F000AC6464C8E75D5DBA2B191932957373E638
:10420000A06060C098818119D14F4F9E7FDCDCA3F4
:10421000662222447E2A2A54AB90903B8388880BE6
:10422000CA46468C29EEEEC7D3B8B86B3C141428A6
:1042300079DEDEA7E25E5EBC1D0B0B1676DBDBAD26
:104240003BE0E0DB563232644E3A3A741E0A0A14FE
:10425000DB4949920A06060C6C242448E45C5CB8ED
:104260005DC2C29F6ED3D3BDEFACAC43A66262C445
:10427000A8919139A495953137E4E4D38B7979F2FB
:1042800032E7E7D543C8C88B5937376EB76D6DDA5B
:104290008C8D8D0164D5D5B1D24E4E9CE0A9A94933
:1042A000B46C6CD8FA5656AC07F4F4F325EAEACFAE
:1042B000AF6565CA8E7A7AF4E9AEAE471808081081
:1042C000D5BABA6F887878F06F25254A722E2E5CA1
:1042D000241C1C38F1A6A657C7B4B47351C6C697A0
:1042E00023E8E8CB7CDDDDA19C7474E8211F1F3E30
:1042F000DD4B4B96DCBDBD61868B8B0D858A8A0FAD
:10430000907070E0423E3E7CC4B5B571AA6666CC42
:10431000D84848900503030601F6F6F7120E0E1C66
:10432000A36161C25F35356AF95757AED0B9B96933
:104330009186861758C1C199271D1D3AB99E9E279F
:1043400038E1E1D913F8F8EBB398982B3311112227
:10435000BB6969D270D9D9A9898E8E07A794943385
:10436000B69B9B2D221E1E3C9287871520E9E9C92A
:1043700049CECE87FF5555AA782828507ADFDFA589
:104380008F8C8C03F8A1A15980898909170D0D1A0A
:10439000DABFBF6531E6E6D7C6424284B86868D066
:1043A000C3414182B0999929772D2D5A110F0F1EC3
:1043B000CBB0B07BFC5454A8D6BBBB6D3A16162CC0
:1043C0006363C6A57C7CF8847777EE997B7BF68D5A
:1043D000F2F2FF0D6B6BD6BD6F6FDEB1C5C59154A8
:1043E00030306050010102036767CEA92B2B567D48
:1043F000FEFEE719D7D7B562ABAB4DE67676EC9A01
:10440000CACA8F4582821F9DC9C989407D7DFA87AE
:10441000FAFAEF155959B2EB47478EC9F0F0FB0B8A
:10442000ADAD41ECD4D4B367A2A25FFDAFAF45EA16
:104430009C9C23BFA4A453F77272E496C0C09B5BFC
:10444000B7B775C2FDFDE11C93933DAE26264C6ABD
:1044500036366C5A3F3F7E41F7F7F502CCCC834F9E
:104460003434685CA5A551F4E5E5D134F1F1F908DF
:104470007171E293D8D8AB733131625315152A3F6D
:104480000404080CC7C7955223234665C3C39D5E29
:1044900018183028969637A105050A0F9A9A2FB555
:1044A00007070E091212243680801B9BE2E2DF3DD3
:1044B000EBEBCD2627274E69B2B27FCD7575EA9F0B
:1044C0000909121B83831D9E2C2C58741A1A342E32
:1044D0001B1B362D6E6EDCB25A5AB4EEA0A05BFBED
:1044E0005252A4F63B3B764DD6D6B761B3B37DCEE0
:1044F0002929527BE3E3DD3E2F2F5E7184841397DD
:104500005353A6F5D1D1B96800000000EDEDC12CE0
:1045100020204060FCFCE31FB1B179C85B5BB6EDC5
:104520006A6AD4BECBCB8D46BEBE67D93939724BD1
:104530004A4A94DE4C4C98D45858B0E8CFCF854ABC
:10454000D0D0BB6BEFEFC52AAAAA4FE5FBFBED1657
:10455000434386C54D4D9AD73333665585851194AF
:1045600045458ACFF9F9E910020204067F7FFE81F2
:104570005050A0F03C3C78449F9F25BAA8A84BE33C
:104580005151A2F3A3A35DFE404080C08F8F058AE6
:1045900092923FAD9D9D21BC38387048F5F5F104ED
:1045A000BCBC63DFB6B677C1DADAAF7521214263EE
:1045B00010102030FFFFE51AF3F3FD0ED2D2BF6DCD
:1045C000CDCD814C0C0C181413132635ECECC32FF5
:1045D0005F5FBEE1979735A2444488CC17172E3908
:1045E000C4C49357A7A755F27E7EFC823D3D7A470F
:1045F0006464C8AC5D5DBAE71919322B7373E69534
:104600006060C0A0818119984F4F9ED1DCDCA37FF0
:10461000222244662A2A547E90903BAB88880B83E2
:1046200046468CCAEEEEC729B8B86BD31414283CA2
:10463000DEDEA7795E5EBCE20B0B161DDBDBAD7622
:10464000E0E0DB3B323264563A3A744E0A0A141EFA
:10465000494992DB06060C0A2424486C5C5CB8E4E9
:10466000C2C29F5DD3D3BD6EACAC43EF6262C4A641
:10467000919139A8959531A4E4E4D3377979F28BF7
:10468000E7E7D532C8C88B4337376E596D6DDAB757
:104690008D8D018CD5D5B1644E4E9CD2A9A949E02F
:1046A0006C6CD8B45656ACFAF4F4F307EAEACF25AA
:1046B0006565CAAF7A7AF48EAEAE47E9080810187D
:1046C000BABA6FD57878F08825254A6F2E2E5C729D
:1046D0001C1C3824A6A657F1B4B473C7C6C697519C
:1046E000E8E8CB23DDDDA17C7474E89C1F1F3E212C
:1046F0004B4B96DDBDBD61DC8B8B0D868A8A0F85A9
:104700007070E0903E3E7C42B5B571C46666CCAA3E
:10471000484890D803030605F6F6F7010E0E1C1262
:104720006161C2A335356A5F5757AEF9B9B969D02F
:1047300086861791C1C199581D1D3A279E9E27B99B
:10474000E1E1D938F8F8EB1398982BB31111223323
:104750006969D2BBD9D9A9708E8E0789949433A781
:104760009B9B2DB61E1E3C2287871592E9E9C92026
:10477000CECE87495555AAFF28285078DFDFA57A85
:104780008C8C038FA1A159F8898909800D0D1A1706
:10479000BFBF65DAE6E6D731424284C66868D0B862
:1047A000414182C3999929B02D2D5A770F0F1E11BF
:1047B000B0B07BCB5454A8FCBBBB6DD616162C3ABC
:1047C00063C6A5637CF8847C77EE99777BF68D7B56
:1047D000F2FF0DF26BD6BD6B6FDEB16FC59154C5A4
:1047E000306050300102030167CEA9672B567D2B44
:1047F000FEE719FED7B562D7AB4DE6AB76EC9A76FD
:10480000CA8F45CA821F9D82C98940C97DFA877DAA
:10481000FAEF15FA59B2EB59478EC947F0FB0BF086
:10482000AD41ECADD4B367D4A25FFDA2AF45EAAF12
:104830009C23BF9CA453F7A472E49672C09B5BC0F8
:10484000B775C2B7FDE11CFD933DAE93264C6A26B9
:10485000366C5A363F7E413FF7F502F7CC834FCC9A
:1048600034685C34A551F4A5E5D134E5F1F908F1DB
:1048700071E29371D8AB73D831625331152A3F1569
:1048800004080C04C79552C723466523C39D5EC325
:10489000183028189637A196050A0F059A2FB59A51
:1048A000070E090712243612801B9B80E2DF3DE2CF
:1048B000EBCD26EB274E6927B27FCDB275EA9F7507
:1048C00009121B09831D9E832C58742C1A342E1A2E
:1048D0001B362D1B6EDCB26E5AB4EE5AA05BFBA0E9
:1048E00052A4F6523B764D3BD6B761D6B37DCEB3DC
:1048F00029527B29E3DD3EE32F5E712F84139784D9
:1049000053A6F553D1B968D100000000EDC12CEDDC
:1049100020406020FCE31FFCB179C8B15BB6ED5BC1
:104920006AD4BE6ACB8D46CBBE67D9BE39724B39CD
:104930004A94DE4A4C98D44C58B0E858CF854ACFB8
:10494000D0BB6BD0EFC52AEFAA4FE5AAFBED16FB53
:104950004386C5434D9AD74D3366553385119485AB
:10496000458ACF45F9E910F9020406027FFE817FEE
:1049700050A0F0503C78443C9F25BA9FA84BE3A838
:1049800051A2F351A35DFEA34080C0408F058A8FE2
:10499000923FAD929D21BC9D38704838F5F104F5E9
:1049A000BC63DFBCB677C1B6DAAF75DA21426321EA
:1049B00010203010FFE51AFFF3FD0EF3D2BF6DD2C9
:1049C000CD814CCD0C18140C13263513ECC32FECF1
:1049D0005FBEE15F9735A2974488CC44172E391704
:1049E000C49357C4A755F2A77EFC827E3D7A473D0B
:1049F00064C8AC645DBAE75D19322B1973E6957330
:104A000060C0A060811998814F9ED14FDCA37FDCEC
:104A1000224466222A547E2A903BAB90880B8388DE
:104A2000468CCA46EEC729EEB86BD3B814283C149E
:104A3000DEA779DE5EBCE25E0B161D0BDBAD76DB1E
:104A4000E0DB3BE0326456323A744E3A0A141E0AF6
:104A50004992DB49060C0A0624486C245CB8E45CE5
:104A6000C29F5DC2D3BD6ED3AC43EFAC62C4A6623D
:104A70009139A8919531A495E4D337E479F28B79F3
:104A8000E7D532E7C88B43C8376E59376DDAB76D53
:104A90008D018C8DD5B164D54E9CD24EA949E0A92B
:104AA0006CD8B46C56ACFA56F4F307F4EACF25EAA6
:104AB00065CAAF657AF48E7AAE47E9AE0810180879
:104AC000BA6FD5BA78F08878254A6F252E5C722E99
:104AD0001C38241CA657F1A6B473C7B4C69751C698
:104AE000E8CB23E8DDA17CDD74E89C741F3E211F28
:104AF0004B96DD4BBD61DCBD8B0D868B8A0F858AA5
:104B000070E090703E7C423EB571C4B566CCAA663A
:104B10004890D84803060503F6F701F60E1C120E5E
:104B200061C2A361356A5F3557AEF957B969D0B92B
:104B300086179186C19958C11D3A271D9E27B99E97
:104B4000E1D938E1F8EB13F8982BB398112233111F
:104B500069D2BB69D9A970D98E07898E9433A7947D
:104B60009B2DB69B1E3C221E87159287E9C920E922
:104B7000CE8749CE55AAFF5528507828DFA57ADF81
:104B80008C038F8CA159F8A1890980890D1A170D02
:104B9000BF65DABFE6D731E64284C64268D0B8685E
:104BA0004182C3419929B0992D5A772D0F1E110FBB
:104BB000B07BCBB054A8FC54BB6DD6BB162C3A16B8
:104BC000C6A56363F8847C7CEE997777F68D7B7B52
:104BD000FF0DF2F2D6BD6B6BDEB16F6F9154C5C5A0
:104BE0006050303002030101CEA96767567D2B2B40
:104BF000E719FEFEB562D7D74DE6ABABEC9A7676F9
:104C00008F45CACA1F9D82828940C9C9FA877D7DA6
:104C1000EF15FAFAB2EB59598EC94747FB0BF0F082
:104C200041ECADADB367D4D45FFDA2A245EAAFAF0E
:104C300023BF9C9C53F7A4A4E49672729B5BC0C0F4
:104C400075C2B7B7E11CFDFD3DAE93934C6A2626B5
:104C50006C5A36367E413F3FF502F7F7834FCCCC96
:104C6000685C343451F4A5A5D134E5E5F908F1F1D7
:104C7000E2937171AB73D8D8625331312A3F151565
:104C8000080C04049552C7C7466523239D5EC3C321
:104C90003028181837A196960A0F05052FB59A9A4D
:104CA0000E090707243612121B9B8080DF3DE2E2CB
:104CB000CD26EBEB4E6927277FCDB2B2EA9F757503
:104CC000121B09091D9E838358742C2C342E1A1A2A
:104CD000362D1B1BDCB26E6EB4EE5A5A5BFBA0A0E5
:104CE000A4F65252764D3B3BB761D6D67DCEB3B3D8
:104CF000527B2929DD3EE3E35E712F2F13978484D5
:104D0000A6F55353B968D1D100000000C12CEDEDD8
:104D100040602020E31FFCFC79C8B1B1B6ED5B5BBD
:104D2000D4BE6A6A8D46CBCB67D9BEBE724B3939C9
:104D300094DE4A4A98D44C4CB0E85858854ACFCFB4
:104D4000BB6BD0D0C52AEFEF4FE5AAAAED16FBFB4F
:104D500086C543439AD74D4D6655333311948585A7
:104D60008ACF4545E910F9F904060202FE817F7FEA
:104D7000A0F0505078443C3C25BA9F9F4BE3A8A834
:104D8000A2F351515DFEA3A380C04040058A8F8FDE
:104D90003FAD929221BC9D9D70483838F104F5F5E5
:104DA00063DFBCBC77C1B6B6AF75DADA42632121E6
:104DB00020301010E51AFFFFFD0EF3F3BF6DD2D2C5
:104DC000814CCDCD18140C0C26351313C32FECECED
:104DD000BEE15F5F35A2979788CC44442E39171700
:104DE0009357C4C455F2A7A7FC827E7E7A473D3D07
:104DF000C8AC6464BAE75D5D322B1919E69573732C
:104E0000C0A06060199881819ED14F4FA37FDCDCE8
:104E100044662222547E2A2A3BAB90900B838888DA
:104E20008CCA4646C729EEEE6BD3B8B8283C14149A
:104E3000A779DEDEBCE25E5E161D0B0BAD76DBDB1A
:104E4000DB3BE0E064563232744E3A3A141E0A0AF2
:104E500092DB49490C0A0606486C2424B8E45C5CE1
:104E60009F5DC2C2BD6ED3D343EFACACC4A6626239
:104E700039A8919131A49595D337E4E4F28B7979EF
:104E8000D532E7E78B43C8C86E593737DAB76D6D4F
:104E9000018C8D8DB164D5D59CD24E4E49E0A9A927
:104EA000D8B46C6CACFA5656F307F4F4CF25EAEAA2
:104EB000CAAF6565F48E7A7A47E9AEAE1018080875
:104EC0006FD5BABAF08878784A6F25255C722E2E95
:104ED00038241C1C57F1A6A673C7B4B49751C6C694
:104EE000CB23E8E8A17CDDDDE89C74743E211F1F24
:104EF00096DD4B4B61DCBDBD0D868B8B0F858A8AA1
:104F0000E09070707C423E3E71C4B5B5CCAA666636
:104F100090D8484806050303F701F6F61C120E0E5A
:104F2000C2A361616A5F3535AEF9575769D0B9B927
:104F3000179186869958C1C13A271D1D27B99E9E93
:104F4000D938E1E1EB13F8F82BB39898223311111B
:104F5000D2BB6969A970D9D907898E8E33A7949479
:104F60002DB69B9B3C221E1E15928787C920E9E91E
:104F70008749CECEAAFF555550782828A57ADFDF7D
:104F8000038F8C8C59F8A1A1098089891A170D0DFE
:104F900065DABFBFD731E6E684C64242D0B868685A
:104FA00082C3414129B099995A772D2D1E110F0FB7
:104FB0007BCBB0B0A8FC54546DD6BBBB2C3A1616B4
:104FC00080B55148006850F480704F4908604F48E0
:104FD00000684F4908404D4908604B4800684D49FA
:104FE0000840494908604848006830F48020464934
:104FF00008604648006830F47D004449086000209D
:105000004549086000F005F85FF00060434908601A
:1050100001BD82B000200190002000903A48006855
:1050200050F00100384908603748006810F002006D
:1050300000900098002803D10198B0F5A04FF3D15B
:1050400031480068800702D50120009001E000206F
:1050500000900098012853D13148006850F00400B6
:105060002F4908602E48006850F002002C49086063
:105070002B48006850F00100294908602948006861
:1050800050F08050274908604FF4006026490860BE
:1050900026480068C006FBD41C4800681B4908600D
:1050A0001A480068194908601848006817490860DC
:1050B0001648006830F47D00144908601348006801
:1050C00050F40800114908600F48006850F08070E3
:1050D0000D4908600C4800688001FBD50B4800684A
:1050E00080088000094908600848006850F0030003
:1050F000064908600548006810F00C000C28F9D13A
:1051000002B070470000000000380240083802403A
:105110000CC0FF88FEFFFEEE0C38024008ED00E0F8
:10512000003C0240243802400070004004700040FF
:10513000637C777BF26B6FC53001672BFED7AB7654
:10514000CA82C97DFA5947F0ADD4A2AF9CA472C0FF
:10515000B7FD9326363FF7CC34A5E5F171D831156C
:1051600004C723C31896059A071280E2EB27B2758D
:1051700009832C1A1B6E5AA0523BD6B329E32F8405
:1051800053D100ED20FCB15B6ACBBE394A4C58CFFD
:10519000D0EFAAFB434D338545F9027F503C9FA8D1
:1051A00051A3408F929D38F5BCB6DA2110FFF3D29F
:1051B000CD0C13EC5F974417C4A77E3D645D197353
:1051C00060814FDC222A908846EEB814DE5E0BDB4D
:1051D000E0323A0A4906245CC2D3AC629195E47984
:1051E000E7C8376D8DD54EA96C56F4EA657AAE08DE
:1051F000BA78252E1CA6B4C6E8DD741F4BBD8B8A79
:10520000703EB5664803F60E613557B986C11D9EDE
:10521000E1F8981169D98E949B1E87E9CE5528DF55
:105220008CA1890DBFE6426841992D0FB054BB1681
:105230004E6F206D65737361676520726563656984
:105240007665642061667465722073656E64696E4C
:105250006720646174612C2077616974696E672EC0
:105260000D0A00000D0A3D3D3D3D3D3D3D3D3D3DAE
:105270003D3D3D3D20444542554720535441525405
:105280004544203D3D3D3D3D3D3D3D3D3D3D3D3D5C
:105290003D0D0A00A027BE33A027BE33E034C13342
:1052A000E034C1332042C4332042C433A127BE338B
:1052B000E134C1332142C4335099C93390A6CC3371
:1052C0000AE6D333696E69744A6F696E4C6F6F700A
:1052D00028292066726F6D206C696E65203638371C
:1052E0002069732063616C6C65642E0D0A000000F8
:1052F00010B450F8041B79B10268436812180830E2
:10530000DC0744BFA9F10104E31852F8044B43F849
:10531000044B091FF9D1ECE710BC704700000001F5
:10532000000000020000000400000008000000105F
:105330000000002000000040000000800000001B72
:105340000000003610B5074979441831064C7C44FA
:10535000163404E00A68081D511888470146A14226
:10536000F8D110BD500000007000000044696420B6
:105370006E6F742072656365697665207468652058
:105380006A6F696E20726573706F6E73652E0000B0
:105390004A6F696E65642C2073656E64696E672060
:1053A0006669727374206D6573736167652E0D0A8B
:1053B000000000003BCCFFFF9C02000044000020E6
:1053C000000000002DFFFFFF440000001C03000050
:1053D0000000002000000000190200000C01000085
:1053E00086000000430000002200000011000000C1
:1053F000080000000300000052656365697665647B
:1054000020726573706F6E7365206D65737361676D
:10541000653A0D0A00000000456E746572656420EF
:1054200070726F636573735278324A6163632829BF
:105430000D0A000000F00BF8002801D0FFF782FFF2
:105440000020C046C046FDF71DFB00F002F8012019
:10545000704700F001B800000746384600F002F837
:10546000FBE7000080B5C046C046024A1100182084
:10547000ABBEFBE726000200526563656976656492
:10548000206A6F696E20726573706F6E73653A0083
:105490002020200E11140C0F12090C0F06090C030A
:1054A0000609000306000000303132333435363748
:1054B000383941424344454600000000537461724C
:1054C000746564206A6F696E696E672E0D0A00004C
:1054D0005343414E5F54494D454F55540000000021
:1054E000424541434F4E5F464F554E440000000039
:1054F000424541434F4E5F4D4953534544000000E0
:10550000424541434F4E5F545241434B4544000096
:1055100052454A4F494E5F4641494C4544000000C0
:105520004C4D49432E646174616C656E203D2000D2
:10553000140E0B080502000000000000000000002F
:10554000AB89EFCD2301674554761032DCFE98BA63
:105550000000000036006A00E600BE01FE03000005
:105560000148804701480047C14F0008D155000855
:105570004A4F494E5F4641494C4544005458434FB9
:105580004D504C45544500004C4F53545F545359B3
:105590004E4300005258434F4D504C455445000077
:1055A0004C494E4B5F444541440000004C494E4B32
:1055B0005F414C4956450000FF06050403020109FE
:1055C00000FF0000000000010001000100000000D9
:1055D000C046C046C046C046FFF72CFF4A4F494E62
:1055E000494E47004A4F494E454400005246553106
:1055F0000000000052455345540000000100000423
:10560000020D00000101010A010B00000200000070
:1056100000EEFFC00123456789ABCDEF020000001B
:1056200000EEFFC00123456789ABCDEFC04000000D
:10563000FFF7FEBFFFF7FEBFFFF7FEBFFFF7FEBF9E
:10564000FFF7FEBFFFF7FEBFFFF7FEBFFFF7FEBF8E
:10565000FFF7FEBFFFF7FEBFFFF7FEBFFFF7FEBF7E
:10566000FFF7FEBFFFF7FEBFFFF7FEBFFFF7FEBF6E
:10567000FFF7FEBFFFF7FEBFFFF7FEBFFFF7FEBF5E
:10568000FFF7FEBFFFF7FEBFFFF7FEBFFFF7FEBF4E
:10569000FFF7FEBFFFF7FEBFFFF7FEBFFFF7FEBF3E
:1056A000FFF7FEBFFFF7FEBFFFF7FEBFFFF7FEBF2E
:1056B000FFF7FEBFFFF7FEBFFFF7FEBFFFF7FEBF1E
:1056C000FFF7FEBFFFF7FEBFFFF7FEBFFFF7FEBF0E
:1056D000FFF7FEBFFFF7FEBFFFF7FEBFFFF7FEBFFE
:1056E000FFF7FEBFFFF7FEBF00000000D054000828
:1056F000E0540008F054000800550008DC5500088C
:10570000E4550008EC5500087055000810550008D5
:105710007C55000888550008F45500089455000889
:0C572000A0550008AC5500080100000076
:04000005080055D1C9
:00000001FF
